{
  "contractName": "SimpleBond",
  "abi": [
    {
      "constant": false,
      "inputs": [],
      "name": "renounceOwnership",
      "outputs": [],
      "payable": false,
      "stateMutability": "nonpayable",
      "type": "function"
    },
    {
      "constant": true,
      "inputs": [],
      "name": "owner",
      "outputs": [
        {
          "name": "",
          "type": "address"
        }
      ],
      "payable": false,
      "stateMutability": "view",
      "type": "function"
    },
    {
      "constant": false,
      "inputs": [
        {
          "name": "_newOwner",
          "type": "address"
        }
      ],
      "name": "transferOwnership",
      "outputs": [],
      "payable": false,
      "stateMutability": "nonpayable",
      "type": "function"
    },
    {
      "inputs": [
        {
          "name": "_name",
          "type": "string"
        },
        {
          "name": "_par",
          "type": "uint256"
        },
        {
          "name": "_parDecimals",
          "type": "uint256"
        },
        {
          "name": "_coupon",
          "type": "uint256"
        },
        {
          "name": "_term",
          "type": "uint256"
        },
        {
          "name": "_cap",
          "type": "uint256"
        },
        {
          "name": "_timesToRedeem",
          "type": "uint256"
        },
        {
          "name": "_tokenToRedeem",
          "type": "address"
        }
      ],
      "payable": false,
      "stateMutability": "nonpayable",
      "type": "constructor"
    },
    {
      "payable": false,
      "stateMutability": "nonpayable",
      "type": "fallback"
    },
    {
      "anonymous": false,
      "inputs": [
        {
          "indexed": true,
          "name": "previousOwner",
          "type": "address"
        }
      ],
      "name": "OwnershipRenounced",
      "type": "event"
    },
    {
      "anonymous": false,
      "inputs": [
        {
          "indexed": true,
          "name": "previousOwner",
          "type": "address"
        },
        {
          "indexed": true,
          "name": "newOwner",
          "type": "address"
        }
      ],
      "name": "OwnershipTransferred",
      "type": "event"
    },
    {
      "anonymous": false,
      "inputs": [
        {
          "indexed": false,
          "name": "buyer",
          "type": "address"
        },
        {
          "indexed": false,
          "name": "bondsAmount",
          "type": "uint256"
        }
      ],
      "name": "MintedBond",
      "type": "event"
    },
    {
      "anonymous": false,
      "inputs": [
        {
          "indexed": true,
          "name": "caller",
          "type": "address"
        },
        {
          "indexed": false,
          "name": "bonds",
          "type": "uint256[]"
        }
      ],
      "name": "RedeemedCoupons",
      "type": "event"
    },
    {
      "anonymous": false,
      "inputs": [
        {
          "indexed": true,
          "name": "caller",
          "type": "address"
        },
        {
          "indexed": false,
          "name": "amountClaimed",
          "type": "uint256"
        }
      ],
      "name": "ClaimedPar",
      "type": "event"
    },
    {
      "anonymous": false,
      "inputs": [
        {
          "indexed": true,
          "name": "from",
          "type": "address"
        },
        {
          "indexed": true,
          "name": "to",
          "type": "address"
        },
        {
          "indexed": false,
          "name": "bonds",
          "type": "uint256[]"
        }
      ],
      "name": "Transferred",
      "type": "event"
    },
    {
      "constant": false,
      "inputs": [
        {
          "name": "buyer",
          "type": "address"
        },
        {
          "name": "_bondsAmount",
          "type": "uint256"
        }
      ],
      "name": "mintBond",
      "outputs": [],
      "payable": false,
      "stateMutability": "nonpayable",
      "type": "function"
    },
    {
      "constant": false,
      "inputs": [
        {
          "name": "_bonds",
          "type": "uint256[]"
        }
      ],
      "name": "redeemCoupons",
      "outputs": [],
      "payable": false,
      "stateMutability": "nonpayable",
      "type": "function"
    },
    {
      "constant": false,
      "inputs": [
        {
          "name": "receiver",
          "type": "address"
        },
        {
          "name": "_bonds",
          "type": "uint256[]"
        }
      ],
      "name": "transfer",
      "outputs": [],
      "payable": false,
      "stateMutability": "nonpayable",
      "type": "function"
    },
    {
      "constant": true,
      "inputs": [
        {
          "name": "bond",
          "type": "uint256"
        }
      ],
      "name": "getLastTimeRedeemed",
      "outputs": [
        {
          "name": "",
          "type": "uint256"
        }
      ],
      "payable": false,
      "stateMutability": "view",
      "type": "function"
    },
    {
      "constant": true,
      "inputs": [
        {
          "name": "bond",
          "type": "uint256"
        }
      ],
      "name": "getOwner",
      "outputs": [
        {
          "name": "",
          "type": "address"
        }
      ],
      "payable": false,
      "stateMutability": "view",
      "type": "function"
    },
    {
      "constant": true,
      "inputs": [
        {
          "name": "bond",
          "type": "uint256"
        }
      ],
      "name": "getRemainingCoupons",
      "outputs": [
        {
          "name": "",
          "type": "int256"
        }
      ],
      "payable": false,
      "stateMutability": "view",
      "type": "function"
    },
    {
      "constant": true,
      "inputs": [
        {
          "name": "bond",
          "type": "uint256"
        }
      ],
      "name": "getCouponsRedeemed",
      "outputs": [
        {
          "name": "",
          "type": "uint256"
        }
      ],
      "payable": false,
      "stateMutability": "view",
      "type": "function"
    },
    {
      "constant": true,
      "inputs": [],
      "name": "getTokenAddress",
      "outputs": [
        {
          "name": "",
          "type": "address"
        }
      ],
      "payable": false,
      "stateMutability": "view",
      "type": "function"
    },
    {
      "constant": true,
      "inputs": [],
      "name": "getTimesToRedeem",
      "outputs": [
        {
          "name": "",
          "type": "uint256"
        }
      ],
      "payable": false,
      "stateMutability": "view",
      "type": "function"
    },
    {
      "constant": true,
      "inputs": [],
      "name": "getTerm",
      "outputs": [
        {
          "name": "",
          "type": "uint256"
        }
      ],
      "payable": false,
      "stateMutability": "view",
      "type": "function"
    },
    {
      "constant": true,
      "inputs": [
        {
          "name": "bond",
          "type": "uint256"
        }
      ],
      "name": "getMaturity",
      "outputs": [
        {
          "name": "",
          "type": "uint256"
        }
      ],
      "payable": false,
      "stateMutability": "view",
      "type": "function"
    },
    {
      "constant": true,
      "inputs": [],
      "name": "getSimpleInterest",
      "outputs": [
        {
          "name": "",
          "type": "uint256"
        }
      ],
      "payable": false,
      "stateMutability": "view",
      "type": "function"
    },
    {
      "constant": true,
      "inputs": [],
      "name": "getCouponRate",
      "outputs": [
        {
          "name": "",
          "type": "uint256"
        }
      ],
      "payable": false,
      "stateMutability": "view",
      "type": "function"
    },
    {
      "constant": true,
      "inputs": [],
      "name": "getParValue",
      "outputs": [
        {
          "name": "",
          "type": "uint256"
        }
      ],
      "payable": false,
      "stateMutability": "view",
      "type": "function"
    },
    {
      "constant": true,
      "inputs": [],
      "name": "getCap",
      "outputs": [
        {
          "name": "",
          "type": "uint256"
        }
      ],
      "payable": false,
      "stateMutability": "view",
      "type": "function"
    },
    {
      "constant": true,
      "inputs": [
        {
          "name": "who",
          "type": "address"
        }
      ],
      "name": "getBondsNumber",
      "outputs": [
        {
          "name": "",
          "type": "uint256"
        }
      ],
      "payable": false,
      "stateMutability": "view",
      "type": "function"
    },
    {
      "constant": true,
      "inputs": [],
      "name": "getParDecimals",
      "outputs": [
        {
          "name": "",
          "type": "uint256"
        }
      ],
      "payable": false,
      "stateMutability": "view",
      "type": "function"
    },
    {
      "constant": true,
      "inputs": [],
      "name": "getTokenToRedeem",
      "outputs": [
        {
          "name": "",
          "type": "address"
        }
      ],
      "payable": false,
      "stateMutability": "view",
      "type": "function"
    },
    {
      "constant": true,
      "inputs": [],
      "name": "getName",
      "outputs": [
        {
          "name": "",
          "type": "string"
        }
      ],
      "payable": false,
      "stateMutability": "view",
      "type": "function"
    },
    {
      "constant": true,
      "inputs": [],
      "name": "getTotalDebt",
      "outputs": [
        {
          "name": "",
          "type": "uint256"
        }
      ],
      "payable": false,
      "stateMutability": "view",
      "type": "function"
    },
    {
      "constant": true,
      "inputs": [],
      "name": "getTotalBonds",
      "outputs": [
        {
          "name": "",
          "type": "uint256"
        }
      ],
      "payable": false,
      "stateMutability": "view",
      "type": "function"
    },
    {
      "constant": true,
      "inputs": [],
      "name": "getNonce",
      "outputs": [
        {
          "name": "",
          "type": "uint256"
        }
      ],
      "payable": false,
      "stateMutability": "view",
      "type": "function"
    },
    {
      "constant": true,
      "inputs": [],
      "name": "getCouponThreshold",
      "outputs": [
        {
          "name": "",
          "type": "uint256"
        }
      ],
      "payable": false,
      "stateMutability": "view",
      "type": "function"
    },
    {
      "constant": true,
      "inputs": [],
      "name": "getMaxCouponsToRedeem",
      "outputs": [
        {
          "name": "",
          "type": "uint256"
        }
      ],
      "payable": false,
      "stateMutability": "view",
      "type": "function"
    }
  ],
  "bytecode": "0x60806040526000600b556000600c556000600d553480156200002057600080fd5b5060405162001da738038062001da78339810180604052810190808051820192919060200180519060200190929190805190602001909291908051906020019092919080519060200190929190805190602001909291908051906020019092919080519060200190929190505050336000806101000a81548173ffffffffffffffffffffffffffffffffffffffff021916908373ffffffffffffffffffffffffffffffffffffffff160217905550600085111515620000de57600080fd5b600087111515620000ee57600080fd5b60018210151515620000ff57600080fd5b87600190805190602001906200011792919062000226565b5086600781905550826006819055508560048190555081600a819055508460088190555083600981905550600a546009548115156200015257fe5b04600c81905550600073ffffffffffffffffffffffffffffffffffffffff168173ffffffffffffffffffffffffffffffffffffffff161415620001d65780600260006101000a81548173ffffffffffffffffffffffffffffffffffffffff021916908373ffffffffffffffffffffffffffffffffffffffff16021790555062000218565b80600e60006101000a81548173ffffffffffffffffffffffffffffffffffffffff021916908373ffffffffffffffffffffffffffffffffffffffff1602179055505b5050505050505050620002d5565b828054600181600116156101000203166002900490600052602060002090601f016020900481019282601f106200026957805160ff19168380011785556200029a565b828001600101855582156200029a579182015b82811115620002995782518255916020019190600101906200027c565b5b509050620002a99190620002ad565b5090565b620002d291905b80821115620002ce576000816000905550600101620002b4565b5090565b90565b611ac280620002e56000396000f30060806040526004361061015f576000357c0100000000000000000000000000000000000000000000000000000000900463ffffffff1680630f0044bf1461016e57806310fe9ae8146101af578063112f84e114610206578063124b65b41461023157806317d7de7c1461025c5780632b4e4e96146102ec57806334ce998a146103725780633af0ca191461039d578063412194af146103f457806343b074851461044b578063554d578d1461048c57806366e3d5ac146104b757806370843ae914610504578063715018a61461052f5780637913bacb146105465780637a36c307146105715780637aafdeee146105d75780637f1e7d41146106025780638da5cb5b1461064357806395be1f1a1461069a578063c41a360a146106db578063cb57b0a514610748578063d087d28814610773578063d561bf531461079e578063e0e09e0f146107c9578063e5759436146107f4578063f2fde38b1461081f575b34801561016b57600080fd5b50005b34801561017a57600080fd5b5061019960048036038101908080359060200190929190505050610862565b6040518082815260200191505060405180910390f35b3480156101bb57600080fd5b506101c46108c7565b604051808273ffffffffffffffffffffffffffffffffffffffff1673ffffffffffffffffffffffffffffffffffffffff16815260200191505060405180910390f35b34801561021257600080fd5b5061021b6108f1565b6040518082815260200191505060405180910390f35b34801561023d57600080fd5b50610246610920565b6040518082815260200191505060405180910390f35b34801561026857600080fd5b5061027161092a565b6040518080602001828103825283818151815260200191508051906020019080838360005b838110156102b1578082015181840152602081019050610296565b50505050905090810190601f1680156102de5780820380516001836020036101000a031916815260200191505b509250505060405180910390f35b3480156102f857600080fd5b50610370600480360381019080803573ffffffffffffffffffffffffffffffffffffffff169060200190929190803590602001908201803590602001908080602002602001604051908101604052809392919081815260200183836020028082843782019150505050505091929192905050506109cc565b005b34801561037e57600080fd5b50610387610c99565b6040518082815260200191505060405180910390f35b3480156103a957600080fd5b506103b2610ca3565b604051808273ffffffffffffffffffffffffffffffffffffffff1673ffffffffffffffffffffffffffffffffffffffff16815260200191505060405180910390f35b34801561040057600080fd5b50610435600480360381019080803573ffffffffffffffffffffffffffffffffffffffff169060200190929190505050610ccd565b6040518082815260200191505060405180910390f35b34801561045757600080fd5b5061047660048036038101908080359060200190929190505050610d16565b6040518082815260200191505060405180910390f35b34801561049857600080fd5b506104a1610d9d565b6040518082815260200191505060405180910390f35b3480156104c357600080fd5b50610502600480360381019080803573ffffffffffffffffffffffffffffffffffffffff16906020019092919080359060200190929190505050610da7565b005b34801561051057600080fd5b506105196110da565b6040518082815260200191505060405180910390f35b34801561053b57600080fd5b506105446110e4565b005b34801561055257600080fd5b5061055b6111e6565b6040518082815260200191505060405180910390f35b34801561057d57600080fd5b506105d5600480360381019080803590602001908201803590602001908080602002602001604051908101604052809392919081815260200183836020028082843782019150505050505091929192905050506111f0565b005b3480156105e357600080fd5b506105ec611665565b6040518082815260200191505060405180910390f35b34801561060e57600080fd5b5061062d6004803603810190808035906020019092919050505061166f565b6040518082815260200191505060405180910390f35b34801561064f57600080fd5b5061065861168c565b604051808273ffffffffffffffffffffffffffffffffffffffff1673ffffffffffffffffffffffffffffffffffffffff16815260200191505060405180910390f35b3480156106a657600080fd5b506106c5600480360381019080803590602001909291905050506116b1565b6040518082815260200191505060405180910390f35b3480156106e757600080fd5b50610706600480360381019080803590602001909291905050506116ce565b604051808273ffffffffffffffffffffffffffffffffffffffff1673ffffffffffffffffffffffffffffffffffffffff16815260200191505060405180910390f35b34801561075457600080fd5b5061075d61170b565b6040518082815260200191505060405180910390f35b34801561077f57600080fd5b50610788611715565b6040518082815260200191505060405180910390f35b3480156107aa57600080fd5b506107b361171f565b6040518082815260200191505060405180910390f35b3480156107d557600080fd5b506107de611729565b6040518082815260200191505060405180910390f35b34801561080057600080fd5b50610809611733565b6040518082815260200191505060405180910390f35b34801561082b57600080fd5b50610860600480360381019080803573ffffffffffffffffffffffffffffffffffffffff16906020019092919050505061173d565b005b600080600061088f60095460106000878152602001908152602001600020546117a490919063ffffffff16565b91506108bb600c54601160008781526020019081526020016000205402836117bd90919063ffffffff16565b90508092505050919050565b6000600e60009054906101000a900473ffffffffffffffffffffffffffffffffffffffff16905090565b60008060006108fe61170b565b915061090861171f565b9050606482820281151561091857fe5b049250505090565b6000600954905090565b606060018054600181600116156101000203166002900480601f0160208091040260200160405190810160405280929190818152602001828054600181600116156101000203166002900480156109c25780601f10610997576101008083540402835291602001916109c2565b820191906000526020600020905b8154815290600101906020018083116109a557829003601f168201915b5050505050905090565b60008082511115156109dd57600080fd5b600073ffffffffffffffffffffffffffffffffffffffff168373ffffffffffffffffffffffffffffffffffffffff1614151515610a1957600080fd5b600090505b8151811015610bee573373ffffffffffffffffffffffffffffffffffffffff16600f60008484815181101515610a5057fe5b90602001906020020151815260200190815260200160002060009054906101000a900473ffffffffffffffffffffffffffffffffffffffff1673ffffffffffffffffffffffffffffffffffffffff16141580610ad75750600a54601160008484815181101515610abc57fe5b90602001906020020151815260200190815260200160002054145b15610ae157610be1565b82600f60008484815181101515610af457fe5b90602001906020020151815260200190815260200160002060006101000a81548173ffffffffffffffffffffffffffffffffffffffff021916908373ffffffffffffffffffffffffffffffffffffffff160217905550610b9d6001601260003373ffffffffffffffffffffffffffffffffffffffff1673ffffffffffffffffffffffffffffffffffffffff168152602001908152602001600020546117a490919063ffffffff16565b601260003373ffffffffffffffffffffffffffffffffffffffff1673ffffffffffffffffffffffffffffffffffffffff168152602001908152602001600020819055505b8080600101915050610a1e565b8273ffffffffffffffffffffffffffffffffffffffff163373ffffffffffffffffffffffffffffffffffffffff167f227687bda9848548d0e213bd3dcc76bc21295e33dff6849e2c2bd7c75cb77bf7846040518080602001828103825283818151815260200191508051906020019060200280838360005b83811015610c81578082015181840152602081019050610c66565b505050509050019250505060405180910390a3505050565b6000600354905090565b6000600260009054906101000a900473ffffffffffffffffffffffffffffffffffffffff16905090565b6000601260008373ffffffffffffffffffffffffffffffffffffffff1673ffffffffffffffffffffffffffffffffffffffff168152602001908152602001600020549050919050565b6000806000610d24846116ce565b9150600073ffffffffffffffffffffffffffffffffffffffff168273ffffffffffffffffffffffffffffffffffffffff161415610d83577fffffffffffffffffffffffffffffffffffffffffffffffffffffffffffffffff9250610d96565b610d8c846116b1565b905080600a540392505b5050919050565b6000600654905090565b60008060009054906101000a900473ffffffffffffffffffffffffffffffffffffffff1673ffffffffffffffffffffffffffffffffffffffff163373ffffffffffffffffffffffffffffffffffffffff16141515610e0457600080fd5b600073ffffffffffffffffffffffffffffffffffffffff168373ffffffffffffffffffffffffffffffffffffffff1614151515610e4057600080fd5b60018210151515610e5057600080fd5b60006006541115610e7157600654826005540111151515610e7057600080fd5b5b610e86826005546117bd90919063ffffffff16565b600581905550610ea182600b546117bd90919063ffffffff16565b600b81905550600090505b8181101561102957610ec9600954426117bd90919063ffffffff16565b60106000610ee284600b546117a490919063ffffffff16565b81526020019081526020016000208190555082600f6000610f0e84600b546117a490919063ffffffff16565b815260200190815260200160002060006101000a81548173ffffffffffffffffffffffffffffffffffffffff021916908373ffffffffffffffffffffffffffffffffffffffff160217905550600060116000610f7584600b546117a490919063ffffffff16565b815260200190815260200160002081905550610fd982601260008673ffffffffffffffffffffffffffffffffffffffff1673ffffffffffffffffffffffffffffffffffffffff168152602001908152602001600020546117bd90919063ffffffff16565b601260008573ffffffffffffffffffffffffffffffffffffffff1673ffffffffffffffffffffffffffffffffffffffff168152602001908152602001600020819055508080600101915050610eac565b61106460646008546007540281151561103e57fe5b046110566007546003546117bd90919063ffffffff16565b6117bd90919063ffffffff16565b6003819055507ff684d4510acd3fe860087ff339d3668df1f4b82d05e5b4cab07130929bfa835d8383604051808373ffffffffffffffffffffffffffffffffffffffff1673ffffffffffffffffffffffffffffffffffffffff1681526020018281526020019250505060405180910390a1505050565b6000600c54905090565b6000809054906101000a900473ffffffffffffffffffffffffffffffffffffffff1673ffffffffffffffffffffffffffffffffffffffff163373ffffffffffffffffffffffffffffffffffffffff1614151561113f57600080fd5b6000809054906101000a900473ffffffffffffffffffffffffffffffffffffffff1673ffffffffffffffffffffffffffffffffffffffff167ff8df31144d9c2f0f6b59d69b8b98abd5459d07f2742c4df920b25aae33c6482060405160405180910390a260008060006101000a81548173ffffffffffffffffffffffffffffffffffffffff021916908373ffffffffffffffffffffffffffffffffffffffff160217905550565b6000600d54905090565b6000806000806000855111151561120657600080fd5b600093506000925060009150600090505b84518110156115cf573373ffffffffffffffffffffffffffffffffffffffff16600f6000878481518110151561124957fe5b90602001906020020151815260200190815260200160002060009054906101000a900473ffffffffffffffffffffffffffffffffffffffff1673ffffffffffffffffffffffffffffffffffffffff161415806112d05750600a546011600087848151811015156112b557fe5b90602001906020020151815260200190815260200160002054145b156112da576115c2565b6113196009546010600088858151811015156112f257fe5b906020019060200201518152602001908152602001600020546117a490919063ffffffff16565b935061135c600c5460116000888581518110151561133357fe5b9060200190602002015181526020019081526020016000205402856117bd90919063ffffffff16565b925060106000868381518110151561137057fe5b9060200190602002015181526020019081526020016000205461139e600c54856117bd90919063ffffffff16565b1015806113be57506113bb600c54846117bd90919063ffffffff16565b42105b156113c8576115c2565b600c546113de84426117a490919063ffffffff16565b8115156113e757fe5b04915060008214156113f8576115c2565b6114358260116000888581518110151561140e57fe5b906020019060200201518152602001908152602001600020546117bd90919063ffffffff16565b60116000878481518110151561144757fe5b90602001906020020151815260200190815260200160002081905550611487600260045401600a0a6008546007540281151561147f57fe5b0483026117d9565b600a5460116000878481518110151561149c57fe5b9060200190602002015181526020019081526020016000205414156115c1576000600f600087848151811015156114cf57fe5b90602001906020020151815260200190815260200160002060006101000a81548173ffffffffffffffffffffffffffffffffffffffff021916908373ffffffffffffffffffffffffffffffffffffffff160217905550600060106000878481518110151561153957fe5b90602001906020020151815260200190815260200160002081905550601260003373ffffffffffffffffffffffffffffffffffffffff1673ffffffffffffffffffffffffffffffffffffffff16815260200190815260200160002060008154809291906001900391905055506115c0600454600a0a6007548115156115ba57fe5b046117d9565b5b5b8080600101915050611217565b3373ffffffffffffffffffffffffffffffffffffffff167f6842ed68604cbaecf495f440b5684cffd179b26f069e5205907f642a1bc91e4d866040518080602001828103825283818151815260200191508051906020019060200280838360005b8381101561164b578082015181840152602081019050611630565b505050509050019250505060405180910390a25050505050565b6000600554905090565b600060106000838152602001908152602001600020549050919050565b6000809054906101000a900473ffffffffffffffffffffffffffffffffffffffff1681565b600060116000838152602001908152602001600020549050919050565b6000600f600083815260200190815260200160002060009054906101000a900473ffffffffffffffffffffffffffffffffffffffff169050919050565b6000600854905090565b6000600b54905090565b6000600754905090565b6000600454905090565b6000600a54905090565b6000809054906101000a900473ffffffffffffffffffffffffffffffffffffffff1673ffffffffffffffffffffffffffffffffffffffff163373ffffffffffffffffffffffffffffffffffffffff1614151561179857600080fd5b6117a18161199c565b50565b60008282111515156117b257fe5b818303905092915050565b600081830190508281101515156117d057fe5b80905092915050565b600073ffffffffffffffffffffffffffffffffffffffff16600e60009054906101000a900473ffffffffffffffffffffffffffffffffffffffff1673ffffffffffffffffffffffffffffffffffffffff16141561187c573373ffffffffffffffffffffffffffffffffffffffff166108fc829081150290604051600060405180830381858888f19350505050158015611876573d6000803e3d6000fd5b5061197e565b600e60009054906101000a900473ffffffffffffffffffffffffffffffffffffffff1673ffffffffffffffffffffffffffffffffffffffff1663a9059cbb33836040518363ffffffff167c0100000000000000000000000000000000000000000000000000000000028152600401808373ffffffffffffffffffffffffffffffffffffffff1673ffffffffffffffffffffffffffffffffffffffff16815260200182815260200192505050602060405180830381600087803b15801561194157600080fd5b505af1158015611955573d6000803e3d6000fd5b505050506040513d602081101561196b57600080fd5b8101908080519060200190929190505050505b611993816003546117a490919063ffffffff16565b60038190555050565b600073ffffffffffffffffffffffffffffffffffffffff168173ffffffffffffffffffffffffffffffffffffffff16141515156119d857600080fd5b8073ffffffffffffffffffffffffffffffffffffffff166000809054906101000a900473ffffffffffffffffffffffffffffffffffffffff1673ffffffffffffffffffffffffffffffffffffffff167f8be0079c531659141344cd1fd0a4f28419497f9722a3daafe3b4186f6b6457e060405160405180910390a3806000806101000a81548173ffffffffffffffffffffffffffffffffffffffff021916908373ffffffffffffffffffffffffffffffffffffffff160217905550505600a165627a7a723058203f341fc1360a303cdaabf52b8f0053b06386ea41c3132d17f0f8c0801a7f0f190029",
  "source": "pragma solidity 0.4.24;\n\nimport \"contracts/zeppelin/ownership/Ownable.sol\";\nimport \"contracts/zeppelin/SafeMath.sol\";\nimport \"contracts/zeppelin/ERC20/BasicToken.sol\";\nimport \"contracts/interfaces/ISimpleBond.sol\";\n\ncontract SimpleBond is ISimpleBond, Ownable {\n\n  using SafeMath for uint256;\n\n  string name;\n\n  address tokenToRedeem;\n\n  uint256 totalDebt;\n\n  uint256 parDecimals;\n\n  uint256 bondsNumber;\n\n  uint256 cap;\n\n  uint256 parValue;\n\n  uint256 couponRate;\n\n  uint256 term;\n\n  uint256 timesToRedeem;\n\n  uint256 nonce = 0;\n\n  uint256 couponThreshold = 0;\n\n  uint256 maxCouponsToRedeem = 0;\n\n  BasicToken token;\n\n  mapping(uint256 => address) bonds;\n  mapping(uint256 => uint256) maturities;\n  mapping(uint256 => uint256) couponsRedeemed;\n  mapping(address => uint256) bondsAmount;\n\n  constructor(string _name, uint256 _par, uint256 _parDecimals, uint256 _coupon,\n              uint256 _term, uint256 _cap, uint256 _timesToRedeem, address _tokenToRedeem) {\n\n    require(_coupon > 0);\n    require(_par > 0);\n    require(_timesToRedeem >= 1);\n\n    name = _name;\n\n    parValue = _par;\n\n    cap = _cap;\n\n    parDecimals = _parDecimals;\n\n    timesToRedeem = _timesToRedeem;\n\n    couponRate = _coupon;\n\n    term = _term;\n\n    couponThreshold = term / timesToRedeem;\n\n    if (_tokenToRedeem == address(0))\n      tokenToRedeem = _tokenToRedeem;\n\n    else\n      token = BasicToken(_tokenToRedeem);\n\n  }\n\n  function mintBond(address buyer, uint256 _bondsAmount) public onlyOwner {\n\n    require(buyer != address(0));\n    require(_bondsAmount >= 1);\n\n    if (cap > 0)\n      require(bondsNumber + _bondsAmount <= cap);\n\n    bondsNumber = bondsNumber.add(_bondsAmount);\n\n    nonce = nonce.add(_bondsAmount);\n\n    for (uint256 i = 0; i < _bondsAmount; i++) {\n\n      maturities[nonce.sub(i)] = now.add(term);\n      bonds[nonce.sub(i)] = buyer;\n      couponsRedeemed[nonce.sub(i)] = 0;\n      bondsAmount[buyer] = bondsAmount[buyer].add(_bondsAmount);\n\n    }\n\n    totalDebt = totalDebt.add(parValue).add(parValue * couponRate / 100);\n\n    emit MintedBond(buyer, _bondsAmount);\n\n  }\n\n  function redeemCoupons(uint256[] _bonds) public {\n\n    require(_bonds.length > 0);\n\n    uint256 issueDate = 0;\n    uint256 lastThresholdRedeemed = 0;\n    uint256 toRedeem = 0;\n\n    for (uint256 i = 0; i < _bonds.length; i++) {\n\n      if (bonds[_bonds[i]] != msg.sender\n          || couponsRedeemed[_bonds[i]] == timesToRedeem) continue;\n\n      issueDate = maturities[_bonds[i]].sub(term);\n\n      lastThresholdRedeemed = issueDate.add(couponsRedeemed[_bonds[i]] * couponThreshold);\n\n      if (lastThresholdRedeemed.add(couponThreshold) >= maturities[_bonds[i]] ||\n          now < lastThresholdRedeemed.add(couponThreshold)) continue;\n\n      toRedeem = (now.sub(lastThresholdRedeemed)) / couponThreshold;\n\n      if (toRedeem == 0) continue;\n\n      couponsRedeemed[_bonds[i]] = couponsRedeemed[_bonds[i]].add(toRedeem);\n\n      getMoney( toRedeem * (parValue * couponRate / 10 ** (parDecimals + 2) ) );\n\n      if (couponsRedeemed[_bonds[i]] == timesToRedeem) {\n\n        bonds[_bonds[i]] = address(0);\n        maturities[_bonds[i]] = 0;\n        bondsAmount[msg.sender]--;\n\n        getMoney(parValue / (10 ** parDecimals));\n\n      }\n\n    }\n\n    emit RedeemedCoupons(msg.sender, _bonds);\n\n  }\n\n  function transfer(address receiver, uint256[] _bonds) public {\n\n    require(_bonds.length > 0);\n    require(receiver != address(0));\n\n    for (uint256 i = 0; i < _bonds.length; i++) {\n\n      if (bonds[_bonds[i]] != msg.sender\n          || couponsRedeemed[_bonds[i]] == timesToRedeem) continue;\n\n      bonds[_bonds[i]] = receiver;\n      bondsAmount[msg.sender] = bondsAmount[msg.sender].sub(1);\n\n    }\n\n    emit Transferred(msg.sender, receiver, _bonds);\n\n  }\n\n  function() {}\n\n  //PRIVATE\n\n  function getMoney(uint256 amount) private {\n\n    if (address(token) == address(0))\n      msg.sender.transfer(amount);\n\n    else\n      token.transfer(msg.sender, amount);\n\n    totalDebt = totalDebt.sub(amount);\n\n  }\n\n  //GETTERS\n\n  function getLastTimeRedeemed(uint256 bond) public view returns (uint256) {\n\n    uint256 issueDate = maturities[bond].sub(term);\n\n    uint256 lastThresholdRedeemed = issueDate.add(couponsRedeemed[bond] * couponThreshold);\n\n    return lastThresholdRedeemed;\n\n  }\n\n  function getOwner(uint256 bond) public view returns (address) {\n\n    return bonds[bond];\n\n  }\n\n  function getRemainingCoupons(uint256 bond) public view returns (int256) {\n\n    address owner = getOwner(bond);\n\n    if (owner == address(0)) return -1;\n\n    uint256 redeemed = getCouponsRedeemed(bond);\n\n    return int256(timesToRedeem - redeemed);\n\n  }\n\n  function getCouponsRedeemed(uint256 bond) public view returns (uint256) {\n\n    return couponsRedeemed[bond];\n\n  }\n\n  function getTokenAddress() public view returns (address) {\n\n    return (address(token));\n\n  }\n\n  function getTimesToRedeem() public view returns (uint256) {\n\n    return timesToRedeem;\n\n  }\n\n  function getTerm() public view returns (uint256) {\n\n    return term;\n\n  }\n\n  function getMaturity(uint256 bond) public view returns (uint256) {\n\n    return maturities[bond];\n\n  }\n\n  function getSimpleInterest() public view returns (uint256) {\n\n    uint256 rate = getCouponRate();\n\n    uint256 par = getParValue();\n\n    return par * rate / 100;\n\n  }\n\n  function getCouponRate() public view returns (uint256) {\n\n    return couponRate;\n\n  }\n\n  function getParValue() public view returns (uint256) {\n\n    return parValue;\n\n  }\n\n  function getCap() public view returns (uint256) {\n\n    return cap;\n\n  }\n\n  function getBondsNumber(address who) public view returns (uint256) {\n\n    return bondsAmount[who];\n\n  }\n\n  function getParDecimals() public view returns (uint256) {\n\n    return parDecimals;\n\n  }\n\n  function getTokenToRedeem() public view returns (address) {\n\n    return tokenToRedeem;\n\n  }\n\n  function getName() public view returns (string) {\n\n    return name;\n\n  }\n\n  function getTotalDebt() public view returns (uint256) {\n\n    return totalDebt;\n\n  }\n\n  function getTotalBonds() public view returns (uint256) {\n\n    return bondsNumber;\n\n  }\n\n  function getNonce() public view returns (uint256) {\n\n    return nonce;\n\n  }\n\n  function getCouponThreshold() public view returns (uint256) {\n\n    return couponThreshold;\n\n  }\n\n  function getMaxCouponsToRedeem() public view returns (uint256) {\n\n    return maxCouponsToRedeem;\n\n  }\n\n}\n",
  "sourcePath": "/home/stefan/Work/SmartBond/contracts/SimpleBond.sol",
  "compiler": {
    "name": "solc",
    "version": "0.4.24+commit.e67f0147.Emscripten.clang"
  },
  "schemaVersion": "2.0.1",
  "updatedAt": "2018-12-11T15:43:22.634Z"
}