{
  "contractName": "SimpleBond",
  "abi": [
    {
      "constant": false,
      "inputs": [],
      "name": "renounceOwnership",
      "outputs": [],
      "payable": false,
      "stateMutability": "nonpayable",
      "type": "function"
    },
    {
      "constant": true,
      "inputs": [],
      "name": "owner",
      "outputs": [
        {
          "name": "",
          "type": "address"
        }
      ],
      "payable": false,
      "stateMutability": "view",
      "type": "function"
    },
    {
      "constant": false,
      "inputs": [
        {
          "name": "_newOwner",
          "type": "address"
        }
      ],
      "name": "transferOwnership",
      "outputs": [],
      "payable": false,
      "stateMutability": "nonpayable",
      "type": "function"
    },
    {
      "inputs": [
        {
          "name": "_name",
          "type": "string"
        },
        {
          "name": "_par",
          "type": "uint256"
        },
        {
          "name": "_parDecimals",
          "type": "uint256"
        },
        {
          "name": "_coupon",
          "type": "uint256"
        },
        {
          "name": "_term",
          "type": "uint256"
        },
        {
          "name": "_cap",
          "type": "uint256"
        },
        {
          "name": "_timesToRedeem",
          "type": "uint256"
        },
        {
          "name": "_tokenToRedeem",
          "type": "address"
        }
      ],
      "payable": false,
      "stateMutability": "nonpayable",
      "type": "constructor"
    },
    {
      "payable": false,
      "stateMutability": "nonpayable",
      "type": "fallback"
    },
    {
      "anonymous": false,
      "inputs": [
        {
          "indexed": true,
          "name": "previousOwner",
          "type": "address"
        }
      ],
      "name": "OwnershipRenounced",
      "type": "event"
    },
    {
      "anonymous": false,
      "inputs": [
        {
          "indexed": true,
          "name": "previousOwner",
          "type": "address"
        },
        {
          "indexed": true,
          "name": "newOwner",
          "type": "address"
        }
      ],
      "name": "OwnershipTransferred",
      "type": "event"
    },
    {
      "anonymous": false,
      "inputs": [
        {
          "indexed": false,
          "name": "buyer",
          "type": "address"
        },
        {
          "indexed": false,
          "name": "bondsAmount",
          "type": "uint256"
        }
      ],
      "name": "MintedBond",
      "type": "event"
    },
    {
      "anonymous": false,
      "inputs": [
        {
          "indexed": true,
          "name": "caller",
          "type": "address"
        },
        {
          "indexed": false,
          "name": "bonds",
          "type": "uint256[]"
        }
      ],
      "name": "RedeemedCoupons",
      "type": "event"
    },
    {
      "anonymous": false,
      "inputs": [
        {
          "indexed": true,
          "name": "caller",
          "type": "address"
        },
        {
          "indexed": false,
          "name": "amountClaimed",
          "type": "uint256"
        }
      ],
      "name": "ClaimedPar",
      "type": "event"
    },
    {
      "anonymous": false,
      "inputs": [
        {
          "indexed": true,
          "name": "from",
          "type": "address"
        },
        {
          "indexed": true,
          "name": "to",
          "type": "address"
        },
        {
          "indexed": false,
          "name": "bonds",
          "type": "uint256[]"
        }
      ],
      "name": "Transferred",
      "type": "event"
    },
    {
      "constant": false,
      "inputs": [
        {
          "name": "buyer",
          "type": "address"
        },
        {
          "name": "_bondsAmount",
          "type": "uint256"
        }
      ],
      "name": "mintBond",
      "outputs": [],
      "payable": false,
      "stateMutability": "nonpayable",
      "type": "function"
    },
    {
      "constant": false,
      "inputs": [
        {
          "name": "_bonds",
          "type": "uint256[]"
        }
      ],
      "name": "redeemCoupons",
      "outputs": [],
      "payable": false,
      "stateMutability": "nonpayable",
      "type": "function"
    },
    {
      "constant": false,
      "inputs": [
        {
          "name": "receiver",
          "type": "address"
        },
        {
          "name": "_bonds",
          "type": "uint256[]"
        }
      ],
      "name": "transfer",
      "outputs": [],
      "payable": false,
      "stateMutability": "nonpayable",
      "type": "function"
    },
    {
      "constant": false,
      "inputs": [],
      "name": "donate",
      "outputs": [],
      "payable": true,
      "stateMutability": "payable",
      "type": "function"
    },
    {
      "constant": true,
      "inputs": [
        {
          "name": "bond",
          "type": "uint256"
        }
      ],
      "name": "getLastTimeRedeemed",
      "outputs": [
        {
          "name": "",
          "type": "uint256"
        }
      ],
      "payable": false,
      "stateMutability": "view",
      "type": "function"
    },
    {
      "constant": true,
      "inputs": [
        {
          "name": "bond",
          "type": "uint256"
        }
      ],
      "name": "getOwner",
      "outputs": [
        {
          "name": "",
          "type": "address"
        }
      ],
      "payable": false,
      "stateMutability": "view",
      "type": "function"
    },
    {
      "constant": true,
      "inputs": [
        {
          "name": "bond",
          "type": "uint256"
        }
      ],
      "name": "getRemainingCoupons",
      "outputs": [
        {
          "name": "",
          "type": "int256"
        }
      ],
      "payable": false,
      "stateMutability": "view",
      "type": "function"
    },
    {
      "constant": true,
      "inputs": [
        {
          "name": "bond",
          "type": "uint256"
        }
      ],
      "name": "getCouponsRedeemed",
      "outputs": [
        {
          "name": "",
          "type": "uint256"
        }
      ],
      "payable": false,
      "stateMutability": "view",
      "type": "function"
    },
    {
      "constant": true,
      "inputs": [],
      "name": "getTokenAddress",
      "outputs": [
        {
          "name": "",
          "type": "address"
        }
      ],
      "payable": false,
      "stateMutability": "view",
      "type": "function"
    },
    {
      "constant": true,
      "inputs": [],
      "name": "getTimesToRedeem",
      "outputs": [
        {
          "name": "",
          "type": "uint256"
        }
      ],
      "payable": false,
      "stateMutability": "view",
      "type": "function"
    },
    {
      "constant": true,
      "inputs": [],
      "name": "getTerm",
      "outputs": [
        {
          "name": "",
          "type": "uint256"
        }
      ],
      "payable": false,
      "stateMutability": "view",
      "type": "function"
    },
    {
      "constant": true,
      "inputs": [
        {
          "name": "bond",
          "type": "uint256"
        }
      ],
      "name": "getMaturity",
      "outputs": [
        {
          "name": "",
          "type": "uint256"
        }
      ],
      "payable": false,
      "stateMutability": "view",
      "type": "function"
    },
    {
      "constant": true,
      "inputs": [],
      "name": "getSimpleInterest",
      "outputs": [
        {
          "name": "",
          "type": "uint256"
        }
      ],
      "payable": false,
      "stateMutability": "view",
      "type": "function"
    },
    {
      "constant": true,
      "inputs": [],
      "name": "getCouponRate",
      "outputs": [
        {
          "name": "",
          "type": "uint256"
        }
      ],
      "payable": false,
      "stateMutability": "view",
      "type": "function"
    },
    {
      "constant": true,
      "inputs": [],
      "name": "getParValue",
      "outputs": [
        {
          "name": "",
          "type": "uint256"
        }
      ],
      "payable": false,
      "stateMutability": "view",
      "type": "function"
    },
    {
      "constant": true,
      "inputs": [],
      "name": "getCap",
      "outputs": [
        {
          "name": "",
          "type": "uint256"
        }
      ],
      "payable": false,
      "stateMutability": "view",
      "type": "function"
    },
    {
      "constant": true,
      "inputs": [
        {
          "name": "who",
          "type": "address"
        }
      ],
      "name": "getBondsNumber",
      "outputs": [
        {
          "name": "",
          "type": "uint256"
        }
      ],
      "payable": false,
      "stateMutability": "view",
      "type": "function"
    },
    {
      "constant": true,
      "inputs": [],
      "name": "getParDecimals",
      "outputs": [
        {
          "name": "",
          "type": "uint256"
        }
      ],
      "payable": false,
      "stateMutability": "view",
      "type": "function"
    },
    {
      "constant": true,
      "inputs": [],
      "name": "getTokenToRedeem",
      "outputs": [
        {
          "name": "",
          "type": "address"
        }
      ],
      "payable": false,
      "stateMutability": "view",
      "type": "function"
    },
    {
      "constant": true,
      "inputs": [],
      "name": "getName",
      "outputs": [
        {
          "name": "",
          "type": "string"
        }
      ],
      "payable": false,
      "stateMutability": "view",
      "type": "function"
    },
    {
      "constant": true,
      "inputs": [],
      "name": "getTotalDebt",
      "outputs": [
        {
          "name": "",
          "type": "uint256"
        }
      ],
      "payable": false,
      "stateMutability": "view",
      "type": "function"
    },
    {
      "constant": true,
      "inputs": [],
      "name": "getTotalBonds",
      "outputs": [
        {
          "name": "",
          "type": "uint256"
        }
      ],
      "payable": false,
      "stateMutability": "view",
      "type": "function"
    },
    {
      "constant": true,
      "inputs": [],
      "name": "getNonce",
      "outputs": [
        {
          "name": "",
          "type": "uint256"
        }
      ],
      "payable": false,
      "stateMutability": "view",
      "type": "function"
    },
    {
      "constant": true,
      "inputs": [],
      "name": "getCouponThreshold",
      "outputs": [
        {
          "name": "",
          "type": "uint256"
        }
      ],
      "payable": false,
      "stateMutability": "view",
      "type": "function"
    },
    {
      "constant": true,
      "inputs": [],
      "name": "getMaxCouponsToRedeem",
      "outputs": [
        {
          "name": "",
          "type": "uint256"
        }
      ],
      "payable": false,
      "stateMutability": "view",
      "type": "function"
    }
  ],
  "bytecode": "0x60806040526000600b556000600c556000600d553480156200002057600080fd5b5060405162001e5838038062001e588339810180604052810190808051820192919060200180519060200190929190805190602001909291908051906020019092919080519060200190929190805190602001909291908051906020019092919080519060200190929190505050336000806101000a81548173ffffffffffffffffffffffffffffffffffffffff021916908373ffffffffffffffffffffffffffffffffffffffff160217905550600085111515620000de57600080fd5b600087111515620000ee57600080fd5b60018210151515620000ff57600080fd5b87600190805190602001906200011792919062000226565b5086600781905550826006819055508560048190555081600a819055508460088190555083600981905550600a546009548115156200015257fe5b04600c81905550600073ffffffffffffffffffffffffffffffffffffffff168173ffffffffffffffffffffffffffffffffffffffff161415620001d65780600260006101000a81548173ffffffffffffffffffffffffffffffffffffffff021916908373ffffffffffffffffffffffffffffffffffffffff16021790555062000218565b80600e60006101000a81548173ffffffffffffffffffffffffffffffffffffffff021916908373ffffffffffffffffffffffffffffffffffffffff1602179055505b5050505050505050620002d5565b828054600181600116156101000203166002900490600052602060002090601f016020900481019282601f106200026957805160ff19168380011785556200029a565b828001600101855582156200029a579182015b82811115620002995782518255916020019190600101906200027c565b5b509050620002a99190620002ad565b5090565b620002d291905b80821115620002ce576000816000905550600101620002b4565b5090565b90565b611b7380620002e56000396000f30060806040526004361061016a576000357c0100000000000000000000000000000000000000000000000000000000900463ffffffff1680630f0044bf1461017957806310fe9ae8146101ba578063112f84e114610211578063124b65b41461023c57806317d7de7c146102675780632b4e4e96146102f757806334ce998a1461037d5780633af0ca19146103a8578063412194af146103ff57806343b0748514610456578063554d578d1461049757806366e3d5ac146104c257806370843ae91461050f578063715018a61461053a5780637913bacb146105515780637a36c3071461057c5780637aafdeee146105e25780637f1e7d411461060d5780638da5cb5b1461064e57806395be1f1a146106a5578063c41a360a146106e6578063cb57b0a514610753578063d087d2881461077e578063d561bf53146107a9578063e0e09e0f146107d4578063e5759436146107ff578063ed88c68e1461082a578063f2fde38b14610834575b34801561017657600080fd5b50005b34801561018557600080fd5b506101a460048036038101908080359060200190929190505050610877565b6040518082815260200191505060405180910390f35b3480156101c657600080fd5b506101cf6108dc565b604051808273ffffffffffffffffffffffffffffffffffffffff1673ffffffffffffffffffffffffffffffffffffffff16815260200191505060405180910390f35b34801561021d57600080fd5b50610226610906565b6040518082815260200191505060405180910390f35b34801561024857600080fd5b50610251610935565b6040518082815260200191505060405180910390f35b34801561027357600080fd5b5061027c61093f565b6040518080602001828103825283818151815260200191508051906020019080838360005b838110156102bc5780820151818401526020810190506102a1565b50505050905090810190601f1680156102e95780820380516001836020036101000a031916815260200191505b509250505060405180910390f35b34801561030357600080fd5b5061037b600480360381019080803573ffffffffffffffffffffffffffffffffffffffff169060200190929190803590602001908201803590602001908080602002602001604051908101604052809392919081815260200183836020028082843782019150505050505091929192905050506109e1565b005b34801561038957600080fd5b50610392610d44565b6040518082815260200191505060405180910390f35b3480156103b457600080fd5b506103bd610d4e565b604051808273ffffffffffffffffffffffffffffffffffffffff1673ffffffffffffffffffffffffffffffffffffffff16815260200191505060405180910390f35b34801561040b57600080fd5b50610440600480360381019080803573ffffffffffffffffffffffffffffffffffffffff169060200190929190505050610d78565b6040518082815260200191505060405180910390f35b34801561046257600080fd5b5061048160048036038101908080359060200190929190505050610dc1565b6040518082815260200191505060405180910390f35b3480156104a357600080fd5b506104ac610e48565b6040518082815260200191505060405180910390f35b3480156104ce57600080fd5b5061050d600480360381019080803573ffffffffffffffffffffffffffffffffffffffff16906020019092919080359060200190929190505050610e52565b005b34801561051b57600080fd5b50610524611189565b6040518082815260200191505060405180910390f35b34801561054657600080fd5b5061054f611193565b005b34801561055d57600080fd5b50610566611295565b6040518082815260200191505060405180910390f35b34801561058857600080fd5b506105e06004803603810190808035906020019082018035906020019080806020026020016040519081016040528093929190818152602001838360200280828437820191505050505050919291929050505061129f565b005b3480156105ee57600080fd5b506105f7611714565b6040518082815260200191505060405180910390f35b34801561061957600080fd5b506106386004803603810190808035906020019092919050505061171e565b6040518082815260200191505060405180910390f35b34801561065a57600080fd5b5061066361173b565b604051808273ffffffffffffffffffffffffffffffffffffffff1673ffffffffffffffffffffffffffffffffffffffff16815260200191505060405180910390f35b3480156106b157600080fd5b506106d060048036038101908080359060200190929190505050611760565b6040518082815260200191505060405180910390f35b3480156106f257600080fd5b506107116004803603810190808035906020019092919050505061177d565b604051808273ffffffffffffffffffffffffffffffffffffffff1673ffffffffffffffffffffffffffffffffffffffff16815260200191505060405180910390f35b34801561075f57600080fd5b506107686117ba565b6040518082815260200191505060405180910390f35b34801561078a57600080fd5b506107936117c4565b6040518082815260200191505060405180910390f35b3480156107b557600080fd5b506107be6117ce565b6040518082815260200191505060405180910390f35b3480156107e057600080fd5b506107e96117d8565b6040518082815260200191505060405180910390f35b34801561080b57600080fd5b506108146117e2565b6040518082815260200191505060405180910390f35b6108326117ec565b005b34801561084057600080fd5b50610875600480360381019080803573ffffffffffffffffffffffffffffffffffffffff1690602001909291905050506117ee565b005b60008060006108a4600954601060008781526020019081526020016000205461185590919063ffffffff16565b91506108d0600c546011600087815260200190815260200160002054028361186e90919063ffffffff16565b90508092505050919050565b6000600e60009054906101000a900473ffffffffffffffffffffffffffffffffffffffff16905090565b60008060006109136117ba565b915061091d6117ce565b9050606482820281151561092d57fe5b049250505090565b6000600954905090565b606060018054600181600116156101000203166002900480601f0160208091040260200160405190810160405280929190818152602001828054600181600116156101000203166002900480156109d75780601f106109ac576101008083540402835291602001916109d7565b820191906000526020600020905b8154815290600101906020018083116109ba57829003601f168201915b5050505050905090565b60008082511115156109f257600080fd5b600073ffffffffffffffffffffffffffffffffffffffff168373ffffffffffffffffffffffffffffffffffffffff1614151515610a2e57600080fd5b600090505b8151811015610c99573373ffffffffffffffffffffffffffffffffffffffff16600f60008484815181101515610a6557fe5b90602001906020020151815260200190815260200160002060009054906101000a900473ffffffffffffffffffffffffffffffffffffffff1673ffffffffffffffffffffffffffffffffffffffff16141580610aec5750600a54601160008484815181101515610ad157fe5b90602001906020020151815260200190815260200160002054145b15610af657610c8c565b82600f60008484815181101515610b0957fe5b90602001906020020151815260200190815260200160002060006101000a81548173ffffffffffffffffffffffffffffffffffffffff021916908373ffffffffffffffffffffffffffffffffffffffff160217905550610bb26001601260003373ffffffffffffffffffffffffffffffffffffffff1673ffffffffffffffffffffffffffffffffffffffff1681526020019081526020016000205461185590919063ffffffff16565b601260003373ffffffffffffffffffffffffffffffffffffffff1673ffffffffffffffffffffffffffffffffffffffff16815260200190815260200160002081905550610c486001601260008673ffffffffffffffffffffffffffffffffffffffff1673ffffffffffffffffffffffffffffffffffffffff1681526020019081526020016000205461186e90919063ffffffff16565b601260008573ffffffffffffffffffffffffffffffffffffffff1673ffffffffffffffffffffffffffffffffffffffff168152602001908152602001600020819055505b8080600101915050610a33565b8273ffffffffffffffffffffffffffffffffffffffff163373ffffffffffffffffffffffffffffffffffffffff167f227687bda9848548d0e213bd3dcc76bc21295e33dff6849e2c2bd7c75cb77bf7846040518080602001828103825283818151815260200191508051906020019060200280838360005b83811015610d2c578082015181840152602081019050610d11565b505050509050019250505060405180910390a3505050565b6000600354905090565b6000600260009054906101000a900473ffffffffffffffffffffffffffffffffffffffff16905090565b6000601260008373ffffffffffffffffffffffffffffffffffffffff1673ffffffffffffffffffffffffffffffffffffffff168152602001908152602001600020549050919050565b6000806000610dcf8461177d565b9150600073ffffffffffffffffffffffffffffffffffffffff168273ffffffffffffffffffffffffffffffffffffffff161415610e2e577fffffffffffffffffffffffffffffffffffffffffffffffffffffffffffffffff9250610e41565b610e3784611760565b905080600a540392505b5050919050565b6000600654905090565b60008060009054906101000a900473ffffffffffffffffffffffffffffffffffffffff1673ffffffffffffffffffffffffffffffffffffffff163373ffffffffffffffffffffffffffffffffffffffff16141515610eaf57600080fd5b600073ffffffffffffffffffffffffffffffffffffffff168373ffffffffffffffffffffffffffffffffffffffff1614151515610eeb57600080fd5b60018210151515610efb57600080fd5b60006006541115610f1c57600654826005540111151515610f1b57600080fd5b5b610f318260055461186e90919063ffffffff16565b600581905550610f4c82600b5461186e90919063ffffffff16565b600b81905550600090505b818110156110d457610f746009544261186e90919063ffffffff16565b60106000610f8d84600b5461185590919063ffffffff16565b81526020019081526020016000208190555082600f6000610fb984600b5461185590919063ffffffff16565b815260200190815260200160002060006101000a81548173ffffffffffffffffffffffffffffffffffffffff021916908373ffffffffffffffffffffffffffffffffffffffff16021790555060006011600061102084600b5461185590919063ffffffff16565b81526020019081526020016000208190555061108482601260008673ffffffffffffffffffffffffffffffffffffffff1673ffffffffffffffffffffffffffffffffffffffff1681526020019081526020016000205461186e90919063ffffffff16565b601260008573ffffffffffffffffffffffffffffffffffffffff1673ffffffffffffffffffffffffffffffffffffffff168152602001908152602001600020819055508080600101915050610f57565b611113600a546064600854600754028115156110ec57fe5b040261110560075460035461186e90919063ffffffff16565b61186e90919063ffffffff16565b6003819055507ff684d4510acd3fe860087ff339d3668df1f4b82d05e5b4cab07130929bfa835d8383604051808373ffffffffffffffffffffffffffffffffffffffff1673ffffffffffffffffffffffffffffffffffffffff1681526020018281526020019250505060405180910390a1505050565b6000600c54905090565b6000809054906101000a900473ffffffffffffffffffffffffffffffffffffffff1673ffffffffffffffffffffffffffffffffffffffff163373ffffffffffffffffffffffffffffffffffffffff161415156111ee57600080fd5b6000809054906101000a900473ffffffffffffffffffffffffffffffffffffffff1673ffffffffffffffffffffffffffffffffffffffff167ff8df31144d9c2f0f6b59d69b8b98abd5459d07f2742c4df920b25aae33c6482060405160405180910390a260008060006101000a81548173ffffffffffffffffffffffffffffffffffffffff021916908373ffffffffffffffffffffffffffffffffffffffff160217905550565b6000600d54905090565b600080600080600085511115156112b557600080fd5b600093506000925060009150600090505b845181101561167e573373ffffffffffffffffffffffffffffffffffffffff16600f600087848151811015156112f857fe5b90602001906020020151815260200190815260200160002060009054906101000a900473ffffffffffffffffffffffffffffffffffffffff1673ffffffffffffffffffffffffffffffffffffffff1614158061137f5750600a5460116000878481518110151561136457fe5b90602001906020020151815260200190815260200160002054145b1561138957611671565b6113c86009546010600088858151811015156113a157fe5b9060200190602002015181526020019081526020016000205461185590919063ffffffff16565b935061140b600c546011600088858151811015156113e257fe5b90602001906020020151815260200190815260200160002054028561186e90919063ffffffff16565b925060106000868381518110151561141f57fe5b9060200190602002015181526020019081526020016000205461144d600c548561186e90919063ffffffff16565b10158061146d575061146a600c548461186e90919063ffffffff16565b42105b1561147757611671565b600c5461148d844261185590919063ffffffff16565b81151561149657fe5b04915060008214156114a757611671565b6114e4826011600088858151811015156114bd57fe5b9060200190602002015181526020019081526020016000205461186e90919063ffffffff16565b6011600087848151811015156114f657fe5b90602001906020020151815260200190815260200160002081905550611536600260045401600a0a6008546007540281151561152e57fe5b04830261188a565b600a5460116000878481518110151561154b57fe5b906020019060200201518152602001908152602001600020541415611670576000600f6000878481518110151561157e57fe5b90602001906020020151815260200190815260200160002060006101000a81548173ffffffffffffffffffffffffffffffffffffffff021916908373ffffffffffffffffffffffffffffffffffffffff16021790555060006010600087848151811015156115e857fe5b90602001906020020151815260200190815260200160002081905550601260003373ffffffffffffffffffffffffffffffffffffffff1673ffffffffffffffffffffffffffffffffffffffff168152602001908152602001600020600081548092919060019003919050555061166f600454600a0a60075481151561166957fe5b0461188a565b5b5b80806001019150506112c6565b3373ffffffffffffffffffffffffffffffffffffffff167f6842ed68604cbaecf495f440b5684cffd179b26f069e5205907f642a1bc91e4d866040518080602001828103825283818151815260200191508051906020019060200280838360005b838110156116fa5780820151818401526020810190506116df565b505050509050019250505060405180910390a25050505050565b6000600554905090565b600060106000838152602001908152602001600020549050919050565b6000809054906101000a900473ffffffffffffffffffffffffffffffffffffffff1681565b600060116000838152602001908152602001600020549050919050565b6000600f600083815260200190815260200160002060009054906101000a900473ffffffffffffffffffffffffffffffffffffffff169050919050565b6000600854905090565b6000600b54905090565b6000600754905090565b6000600454905090565b6000600a54905090565b565b6000809054906101000a900473ffffffffffffffffffffffffffffffffffffffff1673ffffffffffffffffffffffffffffffffffffffff163373ffffffffffffffffffffffffffffffffffffffff1614151561184957600080fd5b61185281611a4d565b50565b600082821115151561186357fe5b818303905092915050565b6000818301905082811015151561188157fe5b80905092915050565b600073ffffffffffffffffffffffffffffffffffffffff16600e60009054906101000a900473ffffffffffffffffffffffffffffffffffffffff1673ffffffffffffffffffffffffffffffffffffffff16141561192d573373ffffffffffffffffffffffffffffffffffffffff166108fc829081150290604051600060405180830381858888f19350505050158015611927573d6000803e3d6000fd5b50611a2f565b600e60009054906101000a900473ffffffffffffffffffffffffffffffffffffffff1673ffffffffffffffffffffffffffffffffffffffff1663a9059cbb33836040518363ffffffff167c0100000000000000000000000000000000000000000000000000000000028152600401808373ffffffffffffffffffffffffffffffffffffffff1673ffffffffffffffffffffffffffffffffffffffff16815260200182815260200192505050602060405180830381600087803b1580156119f257600080fd5b505af1158015611a06573d6000803e3d6000fd5b505050506040513d6020811015611a1c57600080fd5b8101908080519060200190929190505050505b611a448160035461185590919063ffffffff16565b60038190555050565b600073ffffffffffffffffffffffffffffffffffffffff168173ffffffffffffffffffffffffffffffffffffffff1614151515611a8957600080fd5b8073ffffffffffffffffffffffffffffffffffffffff166000809054906101000a900473ffffffffffffffffffffffffffffffffffffffff1673ffffffffffffffffffffffffffffffffffffffff167f8be0079c531659141344cd1fd0a4f28419497f9722a3daafe3b4186f6b6457e060405160405180910390a3806000806101000a81548173ffffffffffffffffffffffffffffffffffffffff021916908373ffffffffffffffffffffffffffffffffffffffff160217905550505600a165627a7a7230582065ee6c57b09e651986ecd8487a02887380bc7a15718e9ec5b3f18167ce13eea20029",
  "source": "pragma solidity 0.4.24;\n\nimport \"contracts/zeppelin/ownership/Ownable.sol\";\nimport \"contracts/zeppelin/SafeMath.sol\";\nimport \"contracts/zeppelin/ERC20/BasicToken.sol\";\nimport \"contracts/interfaces/ISimpleBond.sol\";\n\ncontract SimpleBond is ISimpleBond, Ownable {\n\n  using SafeMath for uint256;\n\n  string name;\n\n  address tokenToRedeem;\n\n  uint256 totalDebt;\n\n  uint256 parDecimals;\n\n  uint256 bondsNumber;\n\n  uint256 cap;\n\n  uint256 parValue;\n\n  uint256 couponRate;\n\n  uint256 term;\n\n  uint256 timesToRedeem;\n\n  uint256 nonce = 0;\n\n  uint256 couponThreshold = 0;\n\n  uint256 maxCouponsToRedeem = 0;\n\n  BasicToken token;\n\n  mapping(uint256 => address) bonds;\n  mapping(uint256 => uint256) maturities;\n  mapping(uint256 => uint256) couponsRedeemed;\n  mapping(address => uint256) bondsAmount;\n\n  constructor(string _name, uint256 _par, uint256 _parDecimals, uint256 _coupon,\n              uint256 _term, uint256 _cap, uint256 _timesToRedeem, address _tokenToRedeem) {\n\n    require(_coupon > 0);\n    require(_par > 0);\n    require(_timesToRedeem >= 1);\n\n    name = _name;\n\n    parValue = _par;\n\n    cap = _cap;\n\n    parDecimals = _parDecimals;\n\n    timesToRedeem = _timesToRedeem;\n\n    couponRate = _coupon;\n\n    term = _term;\n\n    couponThreshold = term / timesToRedeem;\n\n    if (_tokenToRedeem == address(0))\n      tokenToRedeem = _tokenToRedeem;\n\n    else\n      token = BasicToken(_tokenToRedeem);\n\n  }\n\n  function mintBond(address buyer, uint256 _bondsAmount) public onlyOwner {\n\n    require(buyer != address(0));\n    require(_bondsAmount >= 1);\n\n    if (cap > 0)\n      require(bondsNumber + _bondsAmount <= cap);\n\n    bondsNumber = bondsNumber.add(_bondsAmount);\n\n    nonce = nonce.add(_bondsAmount);\n\n    for (uint256 i = 0; i < _bondsAmount; i++) {\n\n      maturities[nonce.sub(i)] = now.add(term);\n      bonds[nonce.sub(i)] = buyer;\n      couponsRedeemed[nonce.sub(i)] = 0;\n      bondsAmount[buyer] = bondsAmount[buyer].add(_bondsAmount);\n\n    }\n\n    totalDebt = totalDebt.add(parValue).add((parValue * couponRate / 100) * timesToRedeem);\n\n    emit MintedBond(buyer, _bondsAmount);\n\n  }\n\n  function redeemCoupons(uint256[] _bonds) public {\n\n    require(_bonds.length > 0);\n\n    uint256 issueDate = 0;\n    uint256 lastThresholdRedeemed = 0;\n    uint256 toRedeem = 0;\n\n    for (uint256 i = 0; i < _bonds.length; i++) {\n\n      if (bonds[_bonds[i]] != msg.sender\n          || couponsRedeemed[_bonds[i]] == timesToRedeem) continue;\n\n      issueDate = maturities[_bonds[i]].sub(term);\n\n      lastThresholdRedeemed = issueDate.add(couponsRedeemed[_bonds[i]] * couponThreshold);\n\n      if (lastThresholdRedeemed.add(couponThreshold) >= maturities[_bonds[i]] ||\n          now < lastThresholdRedeemed.add(couponThreshold)) continue;\n\n      toRedeem = (now.sub(lastThresholdRedeemed)) / couponThreshold;\n\n      if (toRedeem == 0) continue;\n\n      couponsRedeemed[_bonds[i]] = couponsRedeemed[_bonds[i]].add(toRedeem);\n\n      getMoney( toRedeem * (parValue * couponRate / 10 ** (parDecimals + 2) ) );\n\n      if (couponsRedeemed[_bonds[i]] == timesToRedeem) {\n\n        bonds[_bonds[i]] = address(0);\n        maturities[_bonds[i]] = 0;\n        bondsAmount[msg.sender]--;\n\n        getMoney(parValue / (10 ** parDecimals));\n\n      }\n\n    }\n\n    emit RedeemedCoupons(msg.sender, _bonds);\n\n  }\n\n  function transfer(address receiver, uint256[] _bonds) public {\n\n    require(_bonds.length > 0);\n    require(receiver != address(0));\n\n    for (uint256 i = 0; i < _bonds.length; i++) {\n\n      if (bonds[_bonds[i]] != msg.sender\n          || couponsRedeemed[_bonds[i]] == timesToRedeem) continue;\n\n      bonds[_bonds[i]] = receiver;\n      bondsAmount[msg.sender] = bondsAmount[msg.sender].sub(1);\n      bondsAmount[receiver] = bondsAmount[receiver].add(1);\n\n    }\n\n    emit Transferred(msg.sender, receiver, _bonds);\n\n  }\n\n  function donate() public payable {\n\n  }\n\n  function() {}\n\n  //PRIVATE\n\n  function getMoney(uint256 amount) private {\n\n    if (address(token) == address(0))\n      msg.sender.transfer(amount);\n\n    else\n      token.transfer(msg.sender, amount);\n\n    totalDebt = totalDebt.sub(amount);\n\n  }\n\n  //GETTERS\n\n  function getLastTimeRedeemed(uint256 bond) public view returns (uint256) {\n\n    uint256 issueDate = maturities[bond].sub(term);\n\n    uint256 lastThresholdRedeemed = issueDate.add(couponsRedeemed[bond] * couponThreshold);\n\n    return lastThresholdRedeemed;\n\n  }\n\n  function getOwner(uint256 bond) public view returns (address) {\n\n    return bonds[bond];\n\n  }\n\n  function getRemainingCoupons(uint256 bond) public view returns (int256) {\n\n    address owner = getOwner(bond);\n\n    if (owner == address(0)) return -1;\n\n    uint256 redeemed = getCouponsRedeemed(bond);\n\n    return int256(timesToRedeem - redeemed);\n\n  }\n\n  function getCouponsRedeemed(uint256 bond) public view returns (uint256) {\n\n    return couponsRedeemed[bond];\n\n  }\n\n  function getTokenAddress() public view returns (address) {\n\n    return (address(token));\n\n  }\n\n  function getTimesToRedeem() public view returns (uint256) {\n\n    return timesToRedeem;\n\n  }\n\n  function getTerm() public view returns (uint256) {\n\n    return term;\n\n  }\n\n  function getMaturity(uint256 bond) public view returns (uint256) {\n\n    return maturities[bond];\n\n  }\n\n  function getSimpleInterest() public view returns (uint256) {\n\n    uint256 rate = getCouponRate();\n\n    uint256 par = getParValue();\n\n    return par * rate / 100;\n\n  }\n\n  function getCouponRate() public view returns (uint256) {\n\n    return couponRate;\n\n  }\n\n  function getParValue() public view returns (uint256) {\n\n    return parValue;\n\n  }\n\n  function getCap() public view returns (uint256) {\n\n    return cap;\n\n  }\n\n  function getBondsNumber(address who) public view returns (uint256) {\n\n    return bondsAmount[who];\n\n  }\n\n  function getParDecimals() public view returns (uint256) {\n\n    return parDecimals;\n\n  }\n\n  function getTokenToRedeem() public view returns (address) {\n\n    return tokenToRedeem;\n\n  }\n\n  function getName() public view returns (string) {\n\n    return name;\n\n  }\n\n  function getTotalDebt() public view returns (uint256) {\n\n    return totalDebt;\n\n  }\n\n  function getTotalBonds() public view returns (uint256) {\n\n    return bondsNumber;\n\n  }\n\n  function getNonce() public view returns (uint256) {\n\n    return nonce;\n\n  }\n\n  function getCouponThreshold() public view returns (uint256) {\n\n    return couponThreshold;\n\n  }\n\n  function getMaxCouponsToRedeem() public view returns (uint256) {\n\n    return maxCouponsToRedeem;\n\n  }\n\n}\n",
  "sourcePath": "/home/stefan/Work/SmartBond/contracts/SimpleBond.sol",
  "compiler": {
    "name": "solc",
    "version": "0.4.24+commit.e67f0147.Emscripten.clang"
  },
  "schemaVersion": "2.0.1",
  "updatedAt": "2018-12-11T17:26:01.868Z"
}