{
  "contractName": "SimpleBond",
  "abi": [
    {
      "constant": false,
      "inputs": [],
      "name": "renounceOwnership",
      "outputs": [],
      "payable": false,
      "stateMutability": "nonpayable",
      "type": "function"
    },
    {
      "constant": true,
      "inputs": [],
      "name": "owner",
      "outputs": [
        {
          "name": "",
          "type": "address"
        }
      ],
      "payable": false,
      "stateMutability": "view",
      "type": "function"
    },
    {
      "constant": false,
      "inputs": [
        {
          "name": "_newOwner",
          "type": "address"
        }
      ],
      "name": "transferOwnership",
      "outputs": [],
      "payable": false,
      "stateMutability": "nonpayable",
      "type": "function"
    },
    {
      "inputs": [
        {
          "name": "_name",
          "type": "string"
        },
        {
          "name": "_par",
          "type": "uint256"
        },
        {
          "name": "_parDecimals",
          "type": "uint256"
        },
        {
          "name": "_coupon",
          "type": "uint256"
        },
        {
          "name": "_term",
          "type": "uint256"
        },
        {
          "name": "_cap",
          "type": "uint256"
        },
        {
          "name": "_timesToRedeem",
          "type": "uint256"
        },
        {
          "name": "_tokenToRedeem",
          "type": "address"
        },
        {
          "name": "_loopLimit",
          "type": "uint256"
        }
      ],
      "payable": false,
      "stateMutability": "nonpayable",
      "type": "constructor"
    },
    {
      "payable": true,
      "stateMutability": "payable",
      "type": "fallback"
    },
    {
      "anonymous": false,
      "inputs": [
        {
          "indexed": true,
          "name": "previousOwner",
          "type": "address"
        }
      ],
      "name": "OwnershipRenounced",
      "type": "event"
    },
    {
      "anonymous": false,
      "inputs": [
        {
          "indexed": true,
          "name": "previousOwner",
          "type": "address"
        },
        {
          "indexed": true,
          "name": "newOwner",
          "type": "address"
        }
      ],
      "name": "OwnershipTransferred",
      "type": "event"
    },
    {
      "anonymous": false,
      "inputs": [
        {
          "indexed": false,
          "name": "buyer",
          "type": "address"
        },
        {
          "indexed": false,
          "name": "bondsAmount",
          "type": "uint256"
        }
      ],
      "name": "MintedBond",
      "type": "event"
    },
    {
      "anonymous": false,
      "inputs": [
        {
          "indexed": true,
          "name": "caller",
          "type": "address"
        },
        {
          "indexed": false,
          "name": "bonds",
          "type": "uint256[]"
        }
      ],
      "name": "RedeemedCoupons",
      "type": "event"
    },
    {
      "anonymous": false,
      "inputs": [
        {
          "indexed": true,
          "name": "caller",
          "type": "address"
        },
        {
          "indexed": false,
          "name": "amountClaimed",
          "type": "uint256"
        }
      ],
      "name": "ClaimedPar",
      "type": "event"
    },
    {
      "anonymous": false,
      "inputs": [
        {
          "indexed": true,
          "name": "from",
          "type": "address"
        },
        {
          "indexed": true,
          "name": "to",
          "type": "address"
        },
        {
          "indexed": false,
          "name": "bonds",
          "type": "uint256[]"
        }
      ],
      "name": "Transferred",
      "type": "event"
    },
    {
      "constant": false,
      "inputs": [
        {
          "name": "_loopLimit",
          "type": "uint256"
        }
      ],
      "name": "changeLoopLimit",
      "outputs": [],
      "payable": false,
      "stateMutability": "nonpayable",
      "type": "function"
    },
    {
      "constant": false,
      "inputs": [
        {
          "name": "buyer",
          "type": "address"
        },
        {
          "name": "_bondsAmount",
          "type": "uint256"
        }
      ],
      "name": "mintBond",
      "outputs": [],
      "payable": false,
      "stateMutability": "nonpayable",
      "type": "function"
    },
    {
      "constant": false,
      "inputs": [
        {
          "name": "_bonds",
          "type": "uint256[]"
        }
      ],
      "name": "redeemCoupons",
      "outputs": [],
      "payable": false,
      "stateMutability": "nonpayable",
      "type": "function"
    },
    {
      "constant": false,
      "inputs": [
        {
          "name": "receiver",
          "type": "address"
        },
        {
          "name": "_bonds",
          "type": "uint256[]"
        }
      ],
      "name": "transfer",
      "outputs": [],
      "payable": false,
      "stateMutability": "nonpayable",
      "type": "function"
    },
    {
      "constant": false,
      "inputs": [],
      "name": "donate",
      "outputs": [],
      "payable": true,
      "stateMutability": "payable",
      "type": "function"
    },
    {
      "constant": true,
      "inputs": [
        {
          "name": "bond",
          "type": "uint256"
        }
      ],
      "name": "getLastTimeRedeemed",
      "outputs": [
        {
          "name": "",
          "type": "uint256"
        }
      ],
      "payable": false,
      "stateMutability": "view",
      "type": "function"
    },
    {
      "constant": true,
      "inputs": [
        {
          "name": "bond",
          "type": "uint256"
        }
      ],
      "name": "getBondOwner",
      "outputs": [
        {
          "name": "",
          "type": "address"
        }
      ],
      "payable": false,
      "stateMutability": "view",
      "type": "function"
    },
    {
      "constant": true,
      "inputs": [
        {
          "name": "bond",
          "type": "uint256"
        }
      ],
      "name": "getRemainingCoupons",
      "outputs": [
        {
          "name": "",
          "type": "int256"
        }
      ],
      "payable": false,
      "stateMutability": "view",
      "type": "function"
    },
    {
      "constant": true,
      "inputs": [
        {
          "name": "bond",
          "type": "uint256"
        }
      ],
      "name": "getCouponsRedeemed",
      "outputs": [
        {
          "name": "",
          "type": "uint256"
        }
      ],
      "payable": false,
      "stateMutability": "view",
      "type": "function"
    },
    {
      "constant": true,
      "inputs": [],
      "name": "getTokenAddress",
      "outputs": [
        {
          "name": "",
          "type": "address"
        }
      ],
      "payable": false,
      "stateMutability": "view",
      "type": "function"
    },
    {
      "constant": true,
      "inputs": [],
      "name": "getTimesToRedeem",
      "outputs": [
        {
          "name": "",
          "type": "uint256"
        }
      ],
      "payable": false,
      "stateMutability": "view",
      "type": "function"
    },
    {
      "constant": true,
      "inputs": [],
      "name": "getTerm",
      "outputs": [
        {
          "name": "",
          "type": "uint256"
        }
      ],
      "payable": false,
      "stateMutability": "view",
      "type": "function"
    },
    {
      "constant": true,
      "inputs": [
        {
          "name": "bond",
          "type": "uint256"
        }
      ],
      "name": "getMaturity",
      "outputs": [
        {
          "name": "",
          "type": "uint256"
        }
      ],
      "payable": false,
      "stateMutability": "view",
      "type": "function"
    },
    {
      "constant": true,
      "inputs": [],
      "name": "getSimpleInterest",
      "outputs": [
        {
          "name": "",
          "type": "uint256"
        }
      ],
      "payable": false,
      "stateMutability": "view",
      "type": "function"
    },
    {
      "constant": true,
      "inputs": [],
      "name": "getCouponRate",
      "outputs": [
        {
          "name": "",
          "type": "uint256"
        }
      ],
      "payable": false,
      "stateMutability": "view",
      "type": "function"
    },
    {
      "constant": true,
      "inputs": [],
      "name": "getParValue",
      "outputs": [
        {
          "name": "",
          "type": "uint256"
        }
      ],
      "payable": false,
      "stateMutability": "view",
      "type": "function"
    },
    {
      "constant": true,
      "inputs": [],
      "name": "getCap",
      "outputs": [
        {
          "name": "",
          "type": "uint256"
        }
      ],
      "payable": false,
      "stateMutability": "view",
      "type": "function"
    },
    {
      "constant": true,
      "inputs": [
        {
          "name": "who",
          "type": "address"
        }
      ],
      "name": "getBalance",
      "outputs": [
        {
          "name": "",
          "type": "uint256"
        }
      ],
      "payable": false,
      "stateMutability": "view",
      "type": "function"
    },
    {
      "constant": true,
      "inputs": [],
      "name": "getParDecimals",
      "outputs": [
        {
          "name": "",
          "type": "uint256"
        }
      ],
      "payable": false,
      "stateMutability": "view",
      "type": "function"
    },
    {
      "constant": true,
      "inputs": [],
      "name": "getTokenToRedeem",
      "outputs": [
        {
          "name": "",
          "type": "address"
        }
      ],
      "payable": false,
      "stateMutability": "view",
      "type": "function"
    },
    {
      "constant": true,
      "inputs": [],
      "name": "getName",
      "outputs": [
        {
          "name": "",
          "type": "string"
        }
      ],
      "payable": false,
      "stateMutability": "view",
      "type": "function"
    },
    {
      "constant": true,
      "inputs": [],
      "name": "getTotalDebt",
      "outputs": [
        {
          "name": "",
          "type": "uint256"
        }
      ],
      "payable": false,
      "stateMutability": "view",
      "type": "function"
    },
    {
      "constant": true,
      "inputs": [],
      "name": "getTotalBonds",
      "outputs": [
        {
          "name": "",
          "type": "uint256"
        }
      ],
      "payable": false,
      "stateMutability": "view",
      "type": "function"
    },
    {
      "constant": true,
      "inputs": [],
      "name": "getNonce",
      "outputs": [
        {
          "name": "",
          "type": "uint256"
        }
      ],
      "payable": false,
      "stateMutability": "view",
      "type": "function"
    },
    {
      "constant": true,
      "inputs": [],
      "name": "getCouponThreshold",
      "outputs": [
        {
          "name": "",
          "type": "uint256"
        }
      ],
      "payable": false,
      "stateMutability": "view",
      "type": "function"
    }
  ],
  "bytecode": "0x60806040526000600c556000600d553480156200001b57600080fd5b50604051620020fd380380620020fd833981018060405281019080805182019291906020018051906020019092919080519060200190929190805190602001909291908051906020019092919080519060200190929190805190602001909291908051906020019092919080519060200190929190505050336000806101000a81548173ffffffffffffffffffffffffffffffffffffffff021916908373ffffffffffffffffffffffffffffffffffffffff16021790555060008951111515620000e457600080fd5b600086111515620000f457600080fd5b6000881115156200010457600080fd5b6000851115156200011457600080fd5b6000811115156200012457600080fd5b600183101515156200013557600080fd5b88600190805190602001906200014d92919062000291565b50876007819055508360068190555080600b819055508660048190555082600a819055508560088190555084600981905550620001a6600a546009546200027a6401000000000262001aad179091906401000000009004565b600d81905550600073ffffffffffffffffffffffffffffffffffffffff168273ffffffffffffffffffffffffffffffffffffffff161415620002295781600260006101000a81548173ffffffffffffffffffffffffffffffffffffffff021916908373ffffffffffffffffffffffffffffffffffffffff1602179055506200026b565b81600e60006101000a81548173ffffffffffffffffffffffffffffffffffffffff021916908373ffffffffffffffffffffffffffffffffffffffff1602179055505b50505050505050505062000340565b600081838115156200028857fe5b04905092915050565b828054600181600116156101000203166002900490600052602060002090601f016020900481019282601f10620002d457805160ff191683800117855562000305565b8280016001018555821562000305579182015b8281111562000304578251825591602001919060010190620002e7565b5b50905062000314919062000318565b5090565b6200033d91905b80821115620003395760008160009055506001016200031f565b5090565b90565b611dad80620003506000396000f30060806040526004361061016a576000357c0100000000000000000000000000000000000000000000000000000000900463ffffffff1680630f0044bf1461016f57806310fe9ae8146101b0578063112f84e114610207578063124b65b41461023257806317d7de7c1461025d5780632b4e4e96146102ed57806334ce998a146103735780633af0ca191461039e57806343b07485146103f5578063554d578d1461043657806366e3d5ac1461046157806370843ae9146104ae578063715018a6146104d95780637a36c307146104f05780637aafdeee146105565780637f1e7d41146105815780638da5cb5b146105c257806395be1f1a14610619578063bb305ef21461065a578063cb57b0a5146106c7578063d087d288146106f2578063d561bf531461071d578063d87f0afc14610748578063e0e09e0f14610775578063e5759436146107a0578063ed88c68e146107cb578063f2fde38b146107d5578063f8b2cb4f14610818575b600080fd5b34801561017b57600080fd5b5061019a6004803603810190808035906020019092919050505061086f565b6040518082815260200191505060405180910390f35b3480156101bc57600080fd5b506101c56108e4565b604051808273ffffffffffffffffffffffffffffffffffffffff1673ffffffffffffffffffffffffffffffffffffffff16815260200191505060405180910390f35b34801561021357600080fd5b5061021c61090e565b6040518082815260200191505060405180910390f35b34801561023e57600080fd5b50610247610954565b6040518082815260200191505060405180910390f35b34801561026957600080fd5b5061027261095e565b6040518080602001828103825283818151815260200191508051906020019080838360005b838110156102b2578082015181840152602081019050610297565b50505050905090810190601f1680156102df5780820380516001836020036101000a031916815260200191505b509250505060405180910390f35b3480156102f957600080fd5b50610371600480360381019080803573ffffffffffffffffffffffffffffffffffffffff16906020019092919080359060200190820180359060200190808060200260200160405190810160405280939291908181526020018383602002808284378201915050505050509192919290505050610a00565b005b34801561037f57600080fd5b50610388610d7b565b6040518082815260200191505060405180910390f35b3480156103aa57600080fd5b506103b3610d85565b604051808273ffffffffffffffffffffffffffffffffffffffff1673ffffffffffffffffffffffffffffffffffffffff16815260200191505060405180910390f35b34801561040157600080fd5b5061042060048036038101908080359060200190929190505050610daf565b6040518082815260200191505060405180910390f35b34801561044257600080fd5b5061044b610e36565b6040518082815260200191505060405180910390f35b34801561046d57600080fd5b506104ac600480360381019080803573ffffffffffffffffffffffffffffffffffffffff16906020019092919080359060200190929190505050610e40565b005b3480156104ba57600080fd5b506104c36111e3565b6040518082815260200191505060405180910390f35b3480156104e557600080fd5b506104ee6111ed565b005b3480156104fc57600080fd5b50610554600480360381019080803590602001908201803590602001908080602002602001604051908101604052809392919081815260200183836020028082843782019150505050505091929192905050506112ef565b005b34801561056257600080fd5b5061056b6117e5565b6040518082815260200191505060405180910390f35b34801561058d57600080fd5b506105ac600480360381019080803590602001909291905050506117ef565b6040518082815260200191505060405180910390f35b3480156105ce57600080fd5b506105d761180c565b604051808273ffffffffffffffffffffffffffffffffffffffff1673ffffffffffffffffffffffffffffffffffffffff16815260200191505060405180910390f35b34801561062557600080fd5b5061064460048036038101908080359060200190929190505050611831565b6040518082815260200191505060405180910390f35b34801561066657600080fd5b506106856004803603810190808035906020019092919050505061184e565b604051808273ffffffffffffffffffffffffffffffffffffffff1673ffffffffffffffffffffffffffffffffffffffff16815260200191505060405180910390f35b3480156106d357600080fd5b506106dc61188b565b6040518082815260200191505060405180910390f35b3480156106fe57600080fd5b50610707611895565b6040518082815260200191505060405180910390f35b34801561072957600080fd5b5061073261189f565b6040518082815260200191505060405180910390f35b34801561075457600080fd5b50610773600480360381019080803590602001909291905050506118a9565b005b34801561078157600080fd5b5061078a61191d565b6040518082815260200191505060405180910390f35b3480156107ac57600080fd5b506107b5611927565b6040518082815260200191505060405180910390f35b6107d3611931565b005b3480156107e157600080fd5b50610816600480360381019080803573ffffffffffffffffffffffffffffffffffffffff169060200190929190505050611990565b005b34801561082457600080fd5b50610859600480360381019080803573ffffffffffffffffffffffffffffffffffffffff1690602001909291905050506119f7565b6040518082815260200191505060405180910390f35b600080600061089c6009546010600087815260200190815260200160002054611a4090919063ffffffff16565b91506108d86108c9600d546011600088815260200190815260200160002054611a5990919063ffffffff16565b83611a9190919063ffffffff16565b90508092505050919050565b6000600e60009054906101000a900473ffffffffffffffffffffffffffffffffffffffff16905090565b600080600061091b61188b565b915061092561189f565b905061094d606461093f8484611a5990919063ffffffff16565b611aad90919063ffffffff16565b9250505090565b6000600954905090565b606060018054600181600116156101000203166002900480601f0160208091040260200160405190810160405280929190818152602001828054600181600116156101000203166002900480156109f65780601f106109cb576101008083540402835291602001916109f6565b820191906000526020600020905b8154815290600101906020018083116109d957829003601f168201915b5050505050905090565b6000808251111515610a1157600080fd5b600073ffffffffffffffffffffffffffffffffffffffff168373ffffffffffffffffffffffffffffffffffffffff1614151515610a4d57600080fd5b610a56336119f7565b825111151515610a6557600080fd5b600090505b8151811015610cd0573373ffffffffffffffffffffffffffffffffffffffff16600f60008484815181101515610a9c57fe5b90602001906020020151815260200190815260200160002060009054906101000a900473ffffffffffffffffffffffffffffffffffffffff1673ffffffffffffffffffffffffffffffffffffffff16141580610b235750600a54601160008484815181101515610b0857fe5b90602001906020020151815260200190815260200160002054145b15610b2d57610cc3565b82600f60008484815181101515610b4057fe5b90602001906020020151815260200190815260200160002060006101000a81548173ffffffffffffffffffffffffffffffffffffffff021916908373ffffffffffffffffffffffffffffffffffffffff160217905550610be96001601260003373ffffffffffffffffffffffffffffffffffffffff1673ffffffffffffffffffffffffffffffffffffffff16815260200190815260200160002054611a4090919063ffffffff16565b601260003373ffffffffffffffffffffffffffffffffffffffff1673ffffffffffffffffffffffffffffffffffffffff16815260200190815260200160002081905550610c7f6001601260008673ffffffffffffffffffffffffffffffffffffffff1673ffffffffffffffffffffffffffffffffffffffff16815260200190815260200160002054611a9190919063ffffffff16565b601260008573ffffffffffffffffffffffffffffffffffffffff1673ffffffffffffffffffffffffffffffffffffffff168152602001908152602001600020819055505b8080600101915050610a6a565b8273ffffffffffffffffffffffffffffffffffffffff163373ffffffffffffffffffffffffffffffffffffffff167f227687bda9848548d0e213bd3dcc76bc21295e33dff6849e2c2bd7c75cb77bf7846040518080602001828103825283818151815260200191508051906020019060200280838360005b83811015610d63578082015181840152602081019050610d48565b505050509050019250505060405180910390a3505050565b6000600354905090565b6000600260009054906101000a900473ffffffffffffffffffffffffffffffffffffffff16905090565b6000806000610dbd8461184e565b9150600073ffffffffffffffffffffffffffffffffffffffff168273ffffffffffffffffffffffffffffffffffffffff161415610e1c577fffffffffffffffffffffffffffffffffffffffffffffffffffffffffffffffff9250610e2f565b610e2584611831565b905080600a540392505b5050919050565b6000600654905090565b60008060009054906101000a900473ffffffffffffffffffffffffffffffffffffffff1673ffffffffffffffffffffffffffffffffffffffff163373ffffffffffffffffffffffffffffffffffffffff16141515610e9d57600080fd5b600073ffffffffffffffffffffffffffffffffffffffff168373ffffffffffffffffffffffffffffffffffffffff1614151515610ed957600080fd5b60018210151515610ee957600080fd5b600b548211151515610efa57600080fd5b60006006541115610f2b57600654610f1d83600554611a9190919063ffffffff16565b11151515610f2a57600080fd5b5b610f4082600554611a9190919063ffffffff16565b600581905550610f5b82600c54611a9190919063ffffffff16565b600c81905550600090505b818110156110e357610f8360095442611a9190919063ffffffff16565b60106000610f9c84600c54611a4090919063ffffffff16565b81526020019081526020016000208190555082600f6000610fc884600c54611a4090919063ffffffff16565b815260200190815260200160002060006101000a81548173ffffffffffffffffffffffffffffffffffffffff021916908373ffffffffffffffffffffffffffffffffffffffff16021790555060006011600061102f84600c54611a4090919063ffffffff16565b81526020019081526020016000208190555061109382601260008673ffffffffffffffffffffffffffffffffffffffff1673ffffffffffffffffffffffffffffffffffffffff16815260200190815260200160002054611a9190919063ffffffff16565b601260008573ffffffffffffffffffffffffffffffffffffffff1673ffffffffffffffffffffffffffffffffffffffff168152602001908152602001600020819055508080600101915050610f66565b61116d6111366110fe84600a54611a5990919063ffffffff16565b611128606461111a600854600754611a5990919063ffffffff16565b611aad90919063ffffffff16565b611a5990919063ffffffff16565b61115f61114e85600754611a5990919063ffffffff16565b600354611a9190919063ffffffff16565b611a9190919063ffffffff16565b6003819055507ff684d4510acd3fe860087ff339d3668df1f4b82d05e5b4cab07130929bfa835d8383604051808373ffffffffffffffffffffffffffffffffffffffff1673ffffffffffffffffffffffffffffffffffffffff1681526020018281526020019250505060405180910390a1505050565b6000600d54905090565b6000809054906101000a900473ffffffffffffffffffffffffffffffffffffffff1673ffffffffffffffffffffffffffffffffffffffff163373ffffffffffffffffffffffffffffffffffffffff1614151561124857600080fd5b6000809054906101000a900473ffffffffffffffffffffffffffffffffffffffff1673ffffffffffffffffffffffffffffffffffffffff167ff8df31144d9c2f0f6b59d69b8b98abd5459d07f2742c4df920b25aae33c6482060405160405180910390a260008060006101000a81548173ffffffffffffffffffffffffffffffffffffffff021916908373ffffffffffffffffffffffffffffffffffffffff160217905550565b6000806000806000855111151561130557600080fd5b600b5485511115151561131757600080fd5b611320336119f7565b85511115151561132f57600080fd5b600093506000925060009150600090505b845181101561174f573373ffffffffffffffffffffffffffffffffffffffff16600f6000878481518110151561137257fe5b90602001906020020151815260200190815260200160002060009054906101000a900473ffffffffffffffffffffffffffffffffffffffff1673ffffffffffffffffffffffffffffffffffffffff161415806113f95750600a546011600087848151811015156113de57fe5b90602001906020020151815260200190815260200160002054145b1561140357611742565b61144260095460106000888581518110151561141b57fe5b90602001906020020151815260200190815260200160002054611a4090919063ffffffff16565b9350611495611486600d5460116000898681518110151561145f57fe5b90602001906020020151815260200190815260200160002054611a5990919063ffffffff16565b85611a9190919063ffffffff16565b92506010600086838151811015156114a957fe5b906020019060200201518152602001908152602001600020546114d7600d5485611a9190919063ffffffff16565b1015806114f757506114f4600d5484611a9190919063ffffffff16565b42105b1561150157611742565b611528600d5461151a8542611a4090919063ffffffff16565b611aad90919063ffffffff16565b9150600082141561153857611742565b6115758260116000888581518110151561154e57fe5b90602001906020020151815260200190815260200160002054611a9190919063ffffffff16565b60116000878481518110151561158757fe5b906020019060200201518152602001908152602001600020819055506115ff6115f96115ea6115c26002600454611a9190919063ffffffff16565b600a0a6115dc600854600754611a5990919063ffffffff16565b611aad90919063ffffffff16565b84611a5990919063ffffffff16565b33611ac3565b600a5460116000878481518110151561161457fe5b906020019060200201518152602001908152602001600020541415611741576000600f6000878481518110151561164757fe5b90602001906020020151815260200190815260200160002060006101000a81548173ffffffffffffffffffffffffffffffffffffffff021916908373ffffffffffffffffffffffffffffffffffffffff16021790555060006010600087848151811015156116b157fe5b90602001906020020151815260200190815260200160002081905550601260003373ffffffffffffffffffffffffffffffffffffffff1673ffffffffffffffffffffffffffffffffffffffff168152602001908152602001600020600081548092919060019003919050555061174061173a600454600a0a600754611aad90919063ffffffff16565b33611ac3565b5b5b8080600101915050611340565b3373ffffffffffffffffffffffffffffffffffffffff167f6842ed68604cbaecf495f440b5684cffd179b26f069e5205907f642a1bc91e4d866040518080602001828103825283818151815260200191508051906020019060200280838360005b838110156117cb5780820151818401526020810190506117b0565b505050509050019250505060405180910390a25050505050565b6000600554905090565b600060106000838152602001908152602001600020549050919050565b6000809054906101000a900473ffffffffffffffffffffffffffffffffffffffff1681565b600060116000838152602001908152602001600020549050919050565b6000600f600083815260200190815260200160002060009054906101000a900473ffffffffffffffffffffffffffffffffffffffff169050919050565b6000600854905090565b6000600c54905090565b6000600754905090565b6000809054906101000a900473ffffffffffffffffffffffffffffffffffffffff1673ffffffffffffffffffffffffffffffffffffffff163373ffffffffffffffffffffffffffffffffffffffff1614151561190457600080fd5b60008111151561191357600080fd5b80600b8190555050565b6000600454905090565b6000600a54905090565b600073ffffffffffffffffffffffffffffffffffffffff16600e60009054906101000a900473ffffffffffffffffffffffffffffffffffffffff1673ffffffffffffffffffffffffffffffffffffffff1614151561198e57600080fd5b565b6000809054906101000a900473ffffffffffffffffffffffffffffffffffffffff1673ffffffffffffffffffffffffffffffffffffffff163373ffffffffffffffffffffffffffffffffffffffff161415156119eb57600080fd5b6119f481611c87565b50565b6000601260008373ffffffffffffffffffffffffffffffffffffffff1673ffffffffffffffffffffffffffffffffffffffff168152602001908152602001600020549050919050565b6000828211151515611a4e57fe5b818303905092915050565b600080831415611a6c5760009050611a8b565b8183029050818382811515611a7d57fe5b04141515611a8757fe5b8090505b92915050565b60008183019050828110151515611aa457fe5b80905092915050565b60008183811515611aba57fe5b04905092915050565b600073ffffffffffffffffffffffffffffffffffffffff16600e60009054906101000a900473ffffffffffffffffffffffffffffffffffffffff1673ffffffffffffffffffffffffffffffffffffffff161415611b66578073ffffffffffffffffffffffffffffffffffffffff166108fc839081150290604051600060405180830381858888f19350505050158015611b60573d6000803e3d6000fd5b50611c68565b600e60009054906101000a900473ffffffffffffffffffffffffffffffffffffffff1673ffffffffffffffffffffffffffffffffffffffff1663a9059cbb33846040518363ffffffff167c0100000000000000000000000000000000000000000000000000000000028152600401808373ffffffffffffffffffffffffffffffffffffffff1673ffffffffffffffffffffffffffffffffffffffff16815260200182815260200192505050602060405180830381600087803b158015611c2b57600080fd5b505af1158015611c3f573d6000803e3d6000fd5b505050506040513d6020811015611c5557600080fd5b8101908080519060200190929190505050505b611c7d82600354611a4090919063ffffffff16565b6003819055505050565b600073ffffffffffffffffffffffffffffffffffffffff168173ffffffffffffffffffffffffffffffffffffffff1614151515611cc357600080fd5b8073ffffffffffffffffffffffffffffffffffffffff166000809054906101000a900473ffffffffffffffffffffffffffffffffffffffff1673ffffffffffffffffffffffffffffffffffffffff167f8be0079c531659141344cd1fd0a4f28419497f9722a3daafe3b4186f6b6457e060405160405180910390a3806000806101000a81548173ffffffffffffffffffffffffffffffffffffffff021916908373ffffffffffffffffffffffffffffffffffffffff160217905550505600a165627a7a723058200c8e59cfebf1175425b72c983bb5516d752edec36925e18eaa9d989d9fab02e40029",
  "source": "pragma solidity 0.4.24;\n\nimport \"contracts/zeppelin/ownership/Ownable.sol\";\nimport \"contracts/zeppelin/SafeMath.sol\";\nimport \"contracts/zeppelin/ERC20/BasicToken.sol\";\nimport \"contracts/interfaces/ISimpleBond.sol\";\n\ncontract SimpleBond is ISimpleBond, Ownable {\n\n   using SafeMath for uint256;\n\n   string name;\n\n   address tokenToRedeem;\n\n   uint256 totalDebt;\n\n   uint256 parDecimals;\n\n   uint256 bondsNumber;\n\n   uint256 cap;\n\n   uint256 parValue;\n\n   uint256 couponRate;\n\n   uint256 term;\n\n   uint256 timesToRedeem;\n\n   uint256 loopLimit;\n\n   uint256 nonce = 0;\n\n   uint256 couponThreshold = 0;\n\n   BasicToken token;\n\n   mapping(uint256 => address) bonds;\n   mapping(uint256 => uint256) maturities;\n   mapping(uint256 => uint256) couponsRedeemed;\n   mapping(address => uint256) bondsAmount;\n\n   constructor(string _name, uint256 _par, uint256 _parDecimals, uint256 _coupon,\n               uint256 _term, uint256 _cap, uint256 _timesToRedeem, address _tokenToRedeem,\n               uint256 _loopLimit) {\n\n     require(bytes(_name).length > 0);\n     require(_coupon > 0);\n     require(_par > 0);\n     require(_term > 0);\n     require(_loopLimit > 0);\n     require(_timesToRedeem >= 1);\n\n     name = _name;\n\n     parValue = _par;\n\n     cap = _cap;\n\n     loopLimit = _loopLimit;\n\n     parDecimals = _parDecimals;\n\n     timesToRedeem = _timesToRedeem;\n\n     couponRate = _coupon;\n\n     term = _term;\n\n     couponThreshold = term.div(timesToRedeem);\n\n     if (_tokenToRedeem == address(0))\n       tokenToRedeem = _tokenToRedeem;\n\n     else\n       token = BasicToken(_tokenToRedeem);\n\n   }\n\n   /**\n   * @notice Change the number of elements you can loop through in this contract\n   * @param _loopLimit The new loop limit\n   */\n\n   function changeLoopLimit(uint256 _loopLimit) public onlyOwner {\n\n     require(_loopLimit > 0);\n\n     loopLimit = _loopLimit;\n\n   }\n\n   /**\n   * @notice Mint bonds to a new buyer\n   * @param buyer The buyer of the bonds\n   * @param _bondsAmount How many bonds to mint\n   */\n\n   function mintBond(address buyer, uint256 _bondsAmount) public onlyOwner {\n\n     require(buyer != address(0));\n     require(_bondsAmount >= 1);\n     require(_bondsAmount <= loopLimit);\n\n     if (cap > 0)\n       require(bondsNumber.add(_bondsAmount) <= cap);\n\n     bondsNumber = bondsNumber.add(_bondsAmount);\n\n     nonce = nonce.add(_bondsAmount);\n\n     for (uint256 i = 0; i < _bondsAmount; i++) {\n\n       maturities[nonce.sub(i)] = now.add(term);\n       bonds[nonce.sub(i)] = buyer;\n       couponsRedeemed[nonce.sub(i)] = 0;\n       bondsAmount[buyer] = bondsAmount[buyer].add(_bondsAmount);\n\n     }\n\n     totalDebt = totalDebt.add(parValue.mul(_bondsAmount))\n                 .add((parValue.mul(couponRate)\n                 .div(100)).mul(timesToRedeem.mul(_bondsAmount)));\n\n     emit MintedBond(buyer, _bondsAmount);\n\n   }\n\n   /**\n   * @notice Redeem coupons on your bonds\n   * @param _bonds An array of bond ids corresponding to the bonds you want to redeem apon\n   */\n\n   function redeemCoupons(uint256[] _bonds) public {\n\n     require(_bonds.length > 0);\n     require(_bonds.length <= loopLimit);\n     require(_bonds.length <= getBalance(msg.sender));\n\n     uint256 issueDate = 0;\n     uint256 lastThresholdRedeemed = 0;\n     uint256 toRedeem = 0;\n\n     for (uint256 i = 0; i < _bonds.length; i++) {\n\n       if (bonds[_bonds[i]] != msg.sender\n           || couponsRedeemed[_bonds[i]] == timesToRedeem) continue;\n\n       issueDate = maturities[_bonds[i]].sub(term);\n\n       lastThresholdRedeemed = issueDate.add(couponsRedeemed[_bonds[i]].mul(couponThreshold));\n\n       if (lastThresholdRedeemed.add(couponThreshold) >= maturities[_bonds[i]] ||\n           now < lastThresholdRedeemed.add(couponThreshold)) continue;\n\n       toRedeem = (now.sub(lastThresholdRedeemed)).div(couponThreshold);\n\n       if (toRedeem == 0) continue;\n\n       couponsRedeemed[_bonds[i]] = couponsRedeemed[_bonds[i]].add(toRedeem);\n\n       getMoney( toRedeem.mul(parValue.mul(couponRate).div( 10 ** (parDecimals.add(2)) ) ), msg.sender );\n\n       if (couponsRedeemed[_bonds[i]] == timesToRedeem) {\n\n         bonds[_bonds[i]] = address(0);\n         maturities[_bonds[i]] = 0;\n         bondsAmount[msg.sender]--;\n\n         getMoney(parValue.div( (10 ** parDecimals) ), msg.sender );\n\n       }\n\n     }\n\n     emit RedeemedCoupons(msg.sender, _bonds);\n\n   }\n\n   /**\n   * @notice Transfer bonds to another address\n   * @param receiver The receiver of the bonds\n   * @param _bonds The ids of the bonds that you want to transfer\n   */\n\n   function transfer(address receiver, uint256[] _bonds) public {\n\n     require(_bonds.length > 0);\n     require(receiver != address(0));\n     require(_bonds.length <= getBalance(msg.sender));\n\n     for (uint256 i = 0; i < _bonds.length; i++) {\n\n       if (bonds[_bonds[i]] != msg.sender\n           || couponsRedeemed[_bonds[i]] == timesToRedeem) continue;\n\n       bonds[_bonds[i]] = receiver;\n       bondsAmount[msg.sender] = bondsAmount[msg.sender].sub(1);\n       bondsAmount[receiver] = bondsAmount[receiver].add(1);\n\n     }\n\n     emit Transferred(msg.sender, receiver, _bonds);\n\n   }\n\n   /**\n   * @notice Donate money to this contract\n   */\n\n   function donate() public payable {\n\n     require(address(token) == address(0));\n\n   }\n\n   function() payable { revert(); }\n\n   //PRIVATE\n\n   /**\n   * @notice Transfer coupon money to an address\n   * @param amount The amount of money to be transferred\n   * @param receiver The address which will receive the money\n   */\n\n   function getMoney(uint256 amount, address receiver) private {\n\n     if (address(token) == address(0))\n       receiver.transfer(amount);\n\n     else\n       token.transfer(msg.sender, amount);\n\n     totalDebt = totalDebt.sub(amount);\n\n   }\n\n   //GETTERS\n\n   /**\n   * @dev Get the last time coupons for a particular bond were redeemed\n   * @param bond The bond id to analyze\n   */\n\n   function getLastTimeRedeemed(uint256 bond) public view returns (uint256) {\n\n     uint256 issueDate = maturities[bond].sub(term);\n\n     uint256 lastThresholdRedeemed = issueDate.add(couponsRedeemed[bond].mul(couponThreshold));\n\n     return lastThresholdRedeemed;\n\n   }\n\n   /**\n   * @dev Get the owner of a specific bond\n   * @param bond The bond id to analyze\n   */\n\n   function getBondOwner(uint256 bond) public view returns (address) {\n\n     return bonds[bond];\n\n   }\n\n   /**\n   * @dev Get how many coupons remain to be redeemed for a specific bond\n   * @param bond The bond id to analyze\n   */\n\n   function getRemainingCoupons(uint256 bond) public view returns (int256) {\n\n     address owner = getBondOwner(bond);\n\n     if (owner == address(0)) return -1;\n\n     uint256 redeemed = getCouponsRedeemed(bond);\n\n     return int256(timesToRedeem - redeemed);\n\n   }\n\n   /**\n   * @dev Get how many coupons were redeemed for a specific bond\n   * @param bond The bond id to analyze\n   */\n\n   function getCouponsRedeemed(uint256 bond) public view returns (uint256) {\n\n     return couponsRedeemed[bond];\n\n   }\n\n   /**\n   * @dev Get the address of the token that is redeemed for coupons\n   */\n\n   function getTokenAddress() public view returns (address) {\n\n     return (address(token));\n\n   }\n\n   /**\n   * @dev Get how many times coupons can be redeemed for bonds\n   */\n\n   function getTimesToRedeem() public view returns (uint256) {\n\n     return timesToRedeem;\n\n   }\n\n   /**\n   * @dev Get how much time it takes for a bond to mature\n   */\n\n   function getTerm() public view returns (uint256) {\n\n     return term;\n\n   }\n\n   /**\n   * @dev Get the maturity date for a specific bond\n   * @param bond The bond id to analyze\n   */\n\n   function getMaturity(uint256 bond) public view returns (uint256) {\n\n     return maturities[bond];\n\n   }\n\n   /**\n   * @dev Get how much money is redeemed on a coupon\n   */\n\n   function getSimpleInterest() public view returns (uint256) {\n\n     uint256 rate = getCouponRate();\n\n     uint256 par = getParValue();\n\n     return par.mul(rate).div(100);\n\n   }\n\n   /**\n   * @dev Get the yield of a bond\n   */\n\n   function getCouponRate() public view returns (uint256) {\n\n     return couponRate;\n\n   }\n\n   /**\n   * @dev Get the par value for these bonds\n   */\n\n   function getParValue() public view returns (uint256) {\n\n     return parValue;\n\n   }\n\n   /**\n   * @dev Get the cap amount for these bonds\n   */\n\n   function getCap() public view returns (uint256) {\n\n     return cap;\n\n   }\n\n   /**\n   * @dev Get amount of bonds that an address has\n   * @param who The address to analyze\n   */\n\n   function getBalance(address who) public view returns (uint256) {\n\n     return bondsAmount[who];\n\n   }\n\n   /**\n   * @dev If the par value is a real number, it might have decimals. Get the amount of decimals the par value has\n   */\n\n   function getParDecimals() public view returns (uint256) {\n\n     return parDecimals;\n\n   }\n\n   /**\n   * @dev Get the address of the token redeemed for coupons\n   */\n\n   function getTokenToRedeem() public view returns (address) {\n\n     return tokenToRedeem;\n\n   }\n\n   /**\n   * @dev Get the name of this smart bond contract\n   */\n\n   function getName() public view returns (string) {\n\n     return name;\n\n   }\n\n   /**\n   * @dev Get the current unpaid debt\n   */\n\n   function getTotalDebt() public view returns (uint256) {\n\n     return totalDebt;\n\n   }\n\n   /**\n   * @dev Get the total amount of bonds issued\n   */\n\n   function getTotalBonds() public view returns (uint256) {\n\n     return bondsNumber;\n\n   }\n\n   /**\n   * @dev Get the latest nonce\n   */\n\n   function getNonce() public view returns (uint256) {\n\n     return nonce;\n\n   }\n\n   /**\n   * @dev Get the amount of time that needs to pass between the dates when you can redeem coupons\n   */\n\n   function getCouponThreshold() public view returns (uint256) {\n\n     return couponThreshold;\n\n   }\n\n}\n",
  "sourcePath": "/home/stefan/Work/Smart-Bond/contracts/SimpleBond.sol",
  "compiler": {
    "name": "solc",
    "version": "0.4.24+commit.e67f0147.Emscripten.clang"
  },
  "schemaVersion": "2.0.1",
  "updatedAt": "2018-12-21T00:37:06.039Z"
}