{
  "contractName": "SimpleBond",
  "abi": [
    {
      "constant": false,
      "inputs": [],
      "name": "renounceOwnership",
      "outputs": [],
      "payable": false,
      "stateMutability": "nonpayable",
      "type": "function"
    },
    {
      "constant": true,
      "inputs": [],
      "name": "owner",
      "outputs": [
        {
          "name": "",
          "type": "address"
        }
      ],
      "payable": false,
      "stateMutability": "view",
      "type": "function"
    },
    {
      "constant": false,
      "inputs": [
        {
          "name": "_newOwner",
          "type": "address"
        }
      ],
      "name": "transferOwnership",
      "outputs": [],
      "payable": false,
      "stateMutability": "nonpayable",
      "type": "function"
    },
    {
      "inputs": [
        {
          "name": "_name",
          "type": "string"
        },
        {
          "name": "_par",
          "type": "uint256"
        },
        {
          "name": "_parDecimals",
          "type": "uint256"
        },
        {
          "name": "_coupon",
          "type": "uint256"
        },
        {
          "name": "_term",
          "type": "uint256"
        },
        {
          "name": "_cap",
          "type": "uint256"
        },
        {
          "name": "_timesToRedeem",
          "type": "uint256"
        },
        {
          "name": "_tokenToRedeem",
          "type": "address"
        },
        {
          "name": "_loopLimit",
          "type": "uint256"
        }
      ],
      "payable": false,
      "stateMutability": "nonpayable",
      "type": "constructor"
    },
    {
      "payable": false,
      "stateMutability": "nonpayable",
      "type": "fallback"
    },
    {
      "anonymous": false,
      "inputs": [
        {
          "indexed": true,
          "name": "previousOwner",
          "type": "address"
        }
      ],
      "name": "OwnershipRenounced",
      "type": "event"
    },
    {
      "anonymous": false,
      "inputs": [
        {
          "indexed": true,
          "name": "previousOwner",
          "type": "address"
        },
        {
          "indexed": true,
          "name": "newOwner",
          "type": "address"
        }
      ],
      "name": "OwnershipTransferred",
      "type": "event"
    },
    {
      "anonymous": false,
      "inputs": [
        {
          "indexed": false,
          "name": "buyer",
          "type": "address"
        },
        {
          "indexed": false,
          "name": "bondsAmount",
          "type": "uint256"
        }
      ],
      "name": "MintedBond",
      "type": "event"
    },
    {
      "anonymous": false,
      "inputs": [
        {
          "indexed": true,
          "name": "caller",
          "type": "address"
        },
        {
          "indexed": false,
          "name": "bonds",
          "type": "uint256[]"
        }
      ],
      "name": "RedeemedCoupons",
      "type": "event"
    },
    {
      "anonymous": false,
      "inputs": [
        {
          "indexed": true,
          "name": "caller",
          "type": "address"
        },
        {
          "indexed": false,
          "name": "amountClaimed",
          "type": "uint256"
        }
      ],
      "name": "ClaimedPar",
      "type": "event"
    },
    {
      "anonymous": false,
      "inputs": [
        {
          "indexed": true,
          "name": "from",
          "type": "address"
        },
        {
          "indexed": true,
          "name": "to",
          "type": "address"
        },
        {
          "indexed": false,
          "name": "bonds",
          "type": "uint256[]"
        }
      ],
      "name": "Transferred",
      "type": "event"
    },
    {
      "constant": false,
      "inputs": [
        {
          "name": "_loopLimit",
          "type": "uint256"
        }
      ],
      "name": "changeLoopLimit",
      "outputs": [],
      "payable": false,
      "stateMutability": "nonpayable",
      "type": "function"
    },
    {
      "constant": false,
      "inputs": [
        {
          "name": "buyer",
          "type": "address"
        },
        {
          "name": "_bondsAmount",
          "type": "uint256"
        }
      ],
      "name": "mintBond",
      "outputs": [],
      "payable": false,
      "stateMutability": "nonpayable",
      "type": "function"
    },
    {
      "constant": false,
      "inputs": [
        {
          "name": "_bonds",
          "type": "uint256[]"
        }
      ],
      "name": "redeemCoupons",
      "outputs": [],
      "payable": false,
      "stateMutability": "nonpayable",
      "type": "function"
    },
    {
      "constant": false,
      "inputs": [
        {
          "name": "receiver",
          "type": "address"
        },
        {
          "name": "_bonds",
          "type": "uint256[]"
        }
      ],
      "name": "transfer",
      "outputs": [],
      "payable": false,
      "stateMutability": "nonpayable",
      "type": "function"
    },
    {
      "constant": false,
      "inputs": [],
      "name": "donate",
      "outputs": [],
      "payable": true,
      "stateMutability": "payable",
      "type": "function"
    },
    {
      "constant": true,
      "inputs": [
        {
          "name": "bond",
          "type": "uint256"
        }
      ],
      "name": "getLastTimeRedeemed",
      "outputs": [
        {
          "name": "",
          "type": "uint256"
        }
      ],
      "payable": false,
      "stateMutability": "view",
      "type": "function"
    },
    {
      "constant": true,
      "inputs": [
        {
          "name": "bond",
          "type": "uint256"
        }
      ],
      "name": "getBondOwner",
      "outputs": [
        {
          "name": "",
          "type": "address"
        }
      ],
      "payable": false,
      "stateMutability": "view",
      "type": "function"
    },
    {
      "constant": true,
      "inputs": [
        {
          "name": "bond",
          "type": "uint256"
        }
      ],
      "name": "getRemainingCoupons",
      "outputs": [
        {
          "name": "",
          "type": "int256"
        }
      ],
      "payable": false,
      "stateMutability": "view",
      "type": "function"
    },
    {
      "constant": true,
      "inputs": [
        {
          "name": "bond",
          "type": "uint256"
        }
      ],
      "name": "getCouponsRedeemed",
      "outputs": [
        {
          "name": "",
          "type": "uint256"
        }
      ],
      "payable": false,
      "stateMutability": "view",
      "type": "function"
    },
    {
      "constant": true,
      "inputs": [],
      "name": "getTokenAddress",
      "outputs": [
        {
          "name": "",
          "type": "address"
        }
      ],
      "payable": false,
      "stateMutability": "view",
      "type": "function"
    },
    {
      "constant": true,
      "inputs": [],
      "name": "getTimesToRedeem",
      "outputs": [
        {
          "name": "",
          "type": "uint256"
        }
      ],
      "payable": false,
      "stateMutability": "view",
      "type": "function"
    },
    {
      "constant": true,
      "inputs": [],
      "name": "getTerm",
      "outputs": [
        {
          "name": "",
          "type": "uint256"
        }
      ],
      "payable": false,
      "stateMutability": "view",
      "type": "function"
    },
    {
      "constant": true,
      "inputs": [
        {
          "name": "bond",
          "type": "uint256"
        }
      ],
      "name": "getMaturity",
      "outputs": [
        {
          "name": "",
          "type": "uint256"
        }
      ],
      "payable": false,
      "stateMutability": "view",
      "type": "function"
    },
    {
      "constant": true,
      "inputs": [],
      "name": "getSimpleInterest",
      "outputs": [
        {
          "name": "",
          "type": "uint256"
        }
      ],
      "payable": false,
      "stateMutability": "view",
      "type": "function"
    },
    {
      "constant": true,
      "inputs": [],
      "name": "getCouponRate",
      "outputs": [
        {
          "name": "",
          "type": "uint256"
        }
      ],
      "payable": false,
      "stateMutability": "view",
      "type": "function"
    },
    {
      "constant": true,
      "inputs": [],
      "name": "getParValue",
      "outputs": [
        {
          "name": "",
          "type": "uint256"
        }
      ],
      "payable": false,
      "stateMutability": "view",
      "type": "function"
    },
    {
      "constant": true,
      "inputs": [],
      "name": "getCap",
      "outputs": [
        {
          "name": "",
          "type": "uint256"
        }
      ],
      "payable": false,
      "stateMutability": "view",
      "type": "function"
    },
    {
      "constant": true,
      "inputs": [
        {
          "name": "who",
          "type": "address"
        }
      ],
      "name": "getBondsNumber",
      "outputs": [
        {
          "name": "",
          "type": "uint256"
        }
      ],
      "payable": false,
      "stateMutability": "view",
      "type": "function"
    },
    {
      "constant": true,
      "inputs": [],
      "name": "getParDecimals",
      "outputs": [
        {
          "name": "",
          "type": "uint256"
        }
      ],
      "payable": false,
      "stateMutability": "view",
      "type": "function"
    },
    {
      "constant": true,
      "inputs": [],
      "name": "getTokenToRedeem",
      "outputs": [
        {
          "name": "",
          "type": "address"
        }
      ],
      "payable": false,
      "stateMutability": "view",
      "type": "function"
    },
    {
      "constant": true,
      "inputs": [],
      "name": "getName",
      "outputs": [
        {
          "name": "",
          "type": "string"
        }
      ],
      "payable": false,
      "stateMutability": "view",
      "type": "function"
    },
    {
      "constant": true,
      "inputs": [],
      "name": "getTotalDebt",
      "outputs": [
        {
          "name": "",
          "type": "uint256"
        }
      ],
      "payable": false,
      "stateMutability": "view",
      "type": "function"
    },
    {
      "constant": true,
      "inputs": [],
      "name": "getTotalBonds",
      "outputs": [
        {
          "name": "",
          "type": "uint256"
        }
      ],
      "payable": false,
      "stateMutability": "view",
      "type": "function"
    },
    {
      "constant": true,
      "inputs": [],
      "name": "getNonce",
      "outputs": [
        {
          "name": "",
          "type": "uint256"
        }
      ],
      "payable": false,
      "stateMutability": "view",
      "type": "function"
    },
    {
      "constant": true,
      "inputs": [],
      "name": "getCouponThreshold",
      "outputs": [
        {
          "name": "",
          "type": "uint256"
        }
      ],
      "payable": false,
      "stateMutability": "view",
      "type": "function"
    },
    {
      "constant": true,
      "inputs": [],
      "name": "getMaxCouponsToRedeem",
      "outputs": [
        {
          "name": "",
          "type": "uint256"
        }
      ],
      "payable": false,
      "stateMutability": "view",
      "type": "function"
    }
  ],
  "bytecode": "0x60806040526000600c556000600d556000600e553480156200002057600080fd5b50604051620020bc380380620020bc833981018060405281019080805182019291906020018051906020019092919080519060200190929190805190602001909291908051906020019092919080519060200190929190805190602001909291908051906020019092919080519060200190929190505050336000806101000a81548173ffffffffffffffffffffffffffffffffffffffff021916908373ffffffffffffffffffffffffffffffffffffffff16021790555060008951111515620000e957600080fd5b600086111515620000f957600080fd5b6000881115156200010957600080fd5b6000851115156200011957600080fd5b6000811115156200012957600080fd5b600183101515156200013a57600080fd5b88600190805190602001906200015292919062000296565b50876007819055508360068190555080600b819055508660048190555082600a819055508560088190555084600981905550620001ab600a546009546200027f6401000000000262001a68179091906401000000009004565b600d81905550600073ffffffffffffffffffffffffffffffffffffffff168273ffffffffffffffffffffffffffffffffffffffff1614156200022e5781600260006101000a81548173ffffffffffffffffffffffffffffffffffffffff021916908373ffffffffffffffffffffffffffffffffffffffff16021790555062000270565b81600f60006101000a81548173ffffffffffffffffffffffffffffffffffffffff021916908373ffffffffffffffffffffffffffffffffffffffff1602179055505b50505050505050505062000345565b600081838115156200028d57fe5b04905092915050565b828054600181600116156101000203166002900490600052602060002090601f016020900481019282601f10620002d957805160ff19168380011785556200030a565b828001600101855582156200030a579182015b8281111562000309578251825591602001919060010190620002ec565b5b5090506200031991906200031d565b5090565b6200034291905b808211156200033e57600081600090555060010162000324565b5090565b90565b611d6780620003556000396000f300608060405260043610610175576000357c0100000000000000000000000000000000000000000000000000000000900463ffffffff1680630f0044bf1461018457806310fe9ae8146101c5578063112f84e11461021c578063124b65b41461024757806317d7de7c146102725780632b4e4e961461030257806334ce998a146103885780633af0ca19146103b3578063412194af1461040a57806343b0748514610461578063554d578d146104a257806366e3d5ac146104cd57806370843ae91461051a578063715018a6146105455780637913bacb1461055c5780637a36c307146105875780637aafdeee146105ed5780637f1e7d41146106185780638da5cb5b1461065957806395be1f1a146106b0578063bb305ef2146106f1578063cb57b0a51461075e578063d087d28814610789578063d561bf53146107b4578063d87f0afc146107df578063e0e09e0f1461080c578063e575943614610837578063ed88c68e14610862578063f2fde38b1461086c575b34801561018157600080fd5b50005b34801561019057600080fd5b506101af600480360381019080803590602001909291905050506108af565b6040518082815260200191505060405180910390f35b3480156101d157600080fd5b506101da610924565b604051808273ffffffffffffffffffffffffffffffffffffffff1673ffffffffffffffffffffffffffffffffffffffff16815260200191505060405180910390f35b34801561022857600080fd5b5061023161094e565b6040518082815260200191505060405180910390f35b34801561025357600080fd5b5061025c610994565b6040518082815260200191505060405180910390f35b34801561027e57600080fd5b5061028761099e565b6040518080602001828103825283818151815260200191508051906020019080838360005b838110156102c75780820151818401526020810190506102ac565b50505050905090810190601f1680156102f45780820380516001836020036101000a031916815260200191505b509250505060405180910390f35b34801561030e57600080fd5b50610386600480360381019080803573ffffffffffffffffffffffffffffffffffffffff16906020019092919080359060200190820180359060200190808060200260200160405190810160405280939291908181526020018383602002808284378201915050505050509192919290505050610a40565b005b34801561039457600080fd5b5061039d610da3565b6040518082815260200191505060405180910390f35b3480156103bf57600080fd5b506103c8610dad565b604051808273ffffffffffffffffffffffffffffffffffffffff1673ffffffffffffffffffffffffffffffffffffffff16815260200191505060405180910390f35b34801561041657600080fd5b5061044b600480360381019080803573ffffffffffffffffffffffffffffffffffffffff169060200190929190505050610dd7565b6040518082815260200191505060405180910390f35b34801561046d57600080fd5b5061048c60048036038101908080359060200190929190505050610e20565b6040518082815260200191505060405180910390f35b3480156104ae57600080fd5b506104b7610ea7565b6040518082815260200191505060405180910390f35b3480156104d957600080fd5b50610518600480360381019080803573ffffffffffffffffffffffffffffffffffffffff16906020019092919080359060200190929190505050610eb1565b005b34801561052657600080fd5b5061052f611254565b6040518082815260200191505060405180910390f35b34801561055157600080fd5b5061055a61125e565b005b34801561056857600080fd5b50610571611360565b6040518082815260200191505060405180910390f35b34801561059357600080fd5b506105eb6004803603810190808035906020019082018035906020019080806020026020016040519081016040528093929190818152602001838360200280828437820191505050505050919291929050505061136a565b005b3480156105f957600080fd5b50610602611846565b6040518082815260200191505060405180910390f35b34801561062457600080fd5b5061064360048036038101908080359060200190929190505050611850565b6040518082815260200191505060405180910390f35b34801561066557600080fd5b5061066e61186d565b604051808273ffffffffffffffffffffffffffffffffffffffff1673ffffffffffffffffffffffffffffffffffffffff16815260200191505060405180910390f35b3480156106bc57600080fd5b506106db60048036038101908080359060200190929190505050611892565b6040518082815260200191505060405180910390f35b3480156106fd57600080fd5b5061071c600480360381019080803590602001909291905050506118af565b604051808273ffffffffffffffffffffffffffffffffffffffff1673ffffffffffffffffffffffffffffffffffffffff16815260200191505060405180910390f35b34801561076a57600080fd5b506107736118ec565b6040518082815260200191505060405180910390f35b34801561079557600080fd5b5061079e6118f6565b6040518082815260200191505060405180910390f35b3480156107c057600080fd5b506107c9611900565b6040518082815260200191505060405180910390f35b3480156107eb57600080fd5b5061080a6004803603810190808035906020019092919050505061190a565b005b34801561081857600080fd5b5061082161197e565b6040518082815260200191505060405180910390f35b34801561084357600080fd5b5061084c611988565b6040518082815260200191505060405180910390f35b61086a611992565b005b34801561087857600080fd5b506108ad600480360381019080803573ffffffffffffffffffffffffffffffffffffffff169060200190929190505050611994565b005b60008060006108dc60095460116000878152602001908152602001600020546119fb90919063ffffffff16565b9150610918610909600d546012600088815260200190815260200160002054611a1490919063ffffffff16565b83611a4c90919063ffffffff16565b90508092505050919050565b6000600f60009054906101000a900473ffffffffffffffffffffffffffffffffffffffff16905090565b600080600061095b6118ec565b9150610965611900565b905061098d606461097f8484611a1490919063ffffffff16565b611a6890919063ffffffff16565b9250505090565b6000600954905090565b606060018054600181600116156101000203166002900480601f016020809104026020016040519081016040528092919081815260200182805460018160011615610100020316600290048015610a365780601f10610a0b57610100808354040283529160200191610a36565b820191906000526020600020905b815481529060010190602001808311610a1957829003601f168201915b5050505050905090565b6000808251111515610a5157600080fd5b600073ffffffffffffffffffffffffffffffffffffffff168373ffffffffffffffffffffffffffffffffffffffff1614151515610a8d57600080fd5b600090505b8151811015610cf8573373ffffffffffffffffffffffffffffffffffffffff16601060008484815181101515610ac457fe5b90602001906020020151815260200190815260200160002060009054906101000a900473ffffffffffffffffffffffffffffffffffffffff1673ffffffffffffffffffffffffffffffffffffffff16141580610b4b5750600a54601260008484815181101515610b3057fe5b90602001906020020151815260200190815260200160002054145b15610b5557610ceb565b82601060008484815181101515610b6857fe5b90602001906020020151815260200190815260200160002060006101000a81548173ffffffffffffffffffffffffffffffffffffffff021916908373ffffffffffffffffffffffffffffffffffffffff160217905550610c116001601360003373ffffffffffffffffffffffffffffffffffffffff1673ffffffffffffffffffffffffffffffffffffffff168152602001908152602001600020546119fb90919063ffffffff16565b601360003373ffffffffffffffffffffffffffffffffffffffff1673ffffffffffffffffffffffffffffffffffffffff16815260200190815260200160002081905550610ca76001601360008673ffffffffffffffffffffffffffffffffffffffff1673ffffffffffffffffffffffffffffffffffffffff16815260200190815260200160002054611a4c90919063ffffffff16565b601360008573ffffffffffffffffffffffffffffffffffffffff1673ffffffffffffffffffffffffffffffffffffffff168152602001908152602001600020819055505b8080600101915050610a92565b8273ffffffffffffffffffffffffffffffffffffffff163373ffffffffffffffffffffffffffffffffffffffff167f227687bda9848548d0e213bd3dcc76bc21295e33dff6849e2c2bd7c75cb77bf7846040518080602001828103825283818151815260200191508051906020019060200280838360005b83811015610d8b578082015181840152602081019050610d70565b505050509050019250505060405180910390a3505050565b6000600354905090565b6000600260009054906101000a900473ffffffffffffffffffffffffffffffffffffffff16905090565b6000601360008373ffffffffffffffffffffffffffffffffffffffff1673ffffffffffffffffffffffffffffffffffffffff168152602001908152602001600020549050919050565b6000806000610e2e846118af565b9150600073ffffffffffffffffffffffffffffffffffffffff168273ffffffffffffffffffffffffffffffffffffffff161415610e8d577fffffffffffffffffffffffffffffffffffffffffffffffffffffffffffffffff9250610ea0565b610e9684611892565b905080600a540392505b5050919050565b6000600654905090565b60008060009054906101000a900473ffffffffffffffffffffffffffffffffffffffff1673ffffffffffffffffffffffffffffffffffffffff163373ffffffffffffffffffffffffffffffffffffffff16141515610f0e57600080fd5b600073ffffffffffffffffffffffffffffffffffffffff168373ffffffffffffffffffffffffffffffffffffffff1614151515610f4a57600080fd5b60018210151515610f5a57600080fd5b600b548211151515610f6b57600080fd5b60006006541115610f9c57600654610f8e83600554611a4c90919063ffffffff16565b11151515610f9b57600080fd5b5b610fb182600554611a4c90919063ffffffff16565b600581905550610fcc82600c54611a4c90919063ffffffff16565b600c81905550600090505b8181101561115457610ff460095442611a4c90919063ffffffff16565b6011600061100d84600c546119fb90919063ffffffff16565b815260200190815260200160002081905550826010600061103984600c546119fb90919063ffffffff16565b815260200190815260200160002060006101000a81548173ffffffffffffffffffffffffffffffffffffffff021916908373ffffffffffffffffffffffffffffffffffffffff1602179055506000601260006110a084600c546119fb90919063ffffffff16565b81526020019081526020016000208190555061110482601360008673ffffffffffffffffffffffffffffffffffffffff1673ffffffffffffffffffffffffffffffffffffffff16815260200190815260200160002054611a4c90919063ffffffff16565b601360008573ffffffffffffffffffffffffffffffffffffffff1673ffffffffffffffffffffffffffffffffffffffff168152602001908152602001600020819055508080600101915050610fd7565b6111de6111a761116f84600a54611a1490919063ffffffff16565b611199606461118b600854600754611a1490919063ffffffff16565b611a6890919063ffffffff16565b611a1490919063ffffffff16565b6111d06111bf85600754611a1490919063ffffffff16565b600354611a4c90919063ffffffff16565b611a4c90919063ffffffff16565b6003819055507ff684d4510acd3fe860087ff339d3668df1f4b82d05e5b4cab07130929bfa835d8383604051808373ffffffffffffffffffffffffffffffffffffffff1673ffffffffffffffffffffffffffffffffffffffff1681526020018281526020019250505060405180910390a1505050565b6000600d54905090565b6000809054906101000a900473ffffffffffffffffffffffffffffffffffffffff1673ffffffffffffffffffffffffffffffffffffffff163373ffffffffffffffffffffffffffffffffffffffff161415156112b957600080fd5b6000809054906101000a900473ffffffffffffffffffffffffffffffffffffffff1673ffffffffffffffffffffffffffffffffffffffff167ff8df31144d9c2f0f6b59d69b8b98abd5459d07f2742c4df920b25aae33c6482060405160405180910390a260008060006101000a81548173ffffffffffffffffffffffffffffffffffffffff021916908373ffffffffffffffffffffffffffffffffffffffff160217905550565b6000600e54905090565b6000806000806000855111151561138057600080fd5b600b5485511115151561139257600080fd5b600093506000925060009150600090505b84518110156117b0573373ffffffffffffffffffffffffffffffffffffffff166010600087848151811015156113d557fe5b90602001906020020151815260200190815260200160002060009054906101000a900473ffffffffffffffffffffffffffffffffffffffff1673ffffffffffffffffffffffffffffffffffffffff1614158061145c5750600a5460126000878481518110151561144157fe5b90602001906020020151815260200190815260200160002054145b15611466576117a3565b6114a560095460116000888581518110151561147e57fe5b906020019060200201518152602001908152602001600020546119fb90919063ffffffff16565b93506114f86114e9600d546012600089868151811015156114c257fe5b90602001906020020151815260200190815260200160002054611a1490919063ffffffff16565b85611a4c90919063ffffffff16565b925060116000868381518110151561150c57fe5b9060200190602002015181526020019081526020016000205461153a600d5485611a4c90919063ffffffff16565b10158061155a5750611557600d5484611a4c90919063ffffffff16565b42105b15611564576117a3565b61158b600d5461157d85426119fb90919063ffffffff16565b611a6890919063ffffffff16565b9150600082141561159b576117a3565b6115d8826012600088858151811015156115b157fe5b90602001906020020151815260200190815260200160002054611a4c90919063ffffffff16565b6012600087848151811015156115ea57fe5b9060200190602002015181526020019081526020016000208190555061166161165c61164d6116256002600454611a4c90919063ffffffff16565b600a0a61163f600854600754611a1490919063ffffffff16565b611a6890919063ffffffff16565b84611a1490919063ffffffff16565b611a7e565b600a5460126000878481518110151561167657fe5b9060200190602002015181526020019081526020016000205414156117a25760006010600087848151811015156116a957fe5b90602001906020020151815260200190815260200160002060006101000a81548173ffffffffffffffffffffffffffffffffffffffff021916908373ffffffffffffffffffffffffffffffffffffffff160217905550600060116000878481518110151561171357fe5b90602001906020020151815260200190815260200160002081905550601360003373ffffffffffffffffffffffffffffffffffffffff1673ffffffffffffffffffffffffffffffffffffffff16815260200190815260200160002060008154809291906001900391905055506117a161179c600454600a0a600754611a6890919063ffffffff16565b611a7e565b5b5b80806001019150506113a3565b3373ffffffffffffffffffffffffffffffffffffffff167f6842ed68604cbaecf495f440b5684cffd179b26f069e5205907f642a1bc91e4d866040518080602001828103825283818151815260200191508051906020019060200280838360005b8381101561182c578082015181840152602081019050611811565b505050509050019250505060405180910390a25050505050565b6000600554905090565b600060116000838152602001908152602001600020549050919050565b6000809054906101000a900473ffffffffffffffffffffffffffffffffffffffff1681565b600060126000838152602001908152602001600020549050919050565b60006010600083815260200190815260200160002060009054906101000a900473ffffffffffffffffffffffffffffffffffffffff169050919050565b6000600854905090565b6000600c54905090565b6000600754905090565b6000809054906101000a900473ffffffffffffffffffffffffffffffffffffffff1673ffffffffffffffffffffffffffffffffffffffff163373ffffffffffffffffffffffffffffffffffffffff1614151561196557600080fd5b60008111151561197457600080fd5b80600b8190555050565b6000600454905090565b6000600a54905090565b565b6000809054906101000a900473ffffffffffffffffffffffffffffffffffffffff1673ffffffffffffffffffffffffffffffffffffffff163373ffffffffffffffffffffffffffffffffffffffff161415156119ef57600080fd5b6119f881611c41565b50565b6000828211151515611a0957fe5b818303905092915050565b600080831415611a275760009050611a46565b8183029050818382811515611a3857fe5b04141515611a4257fe5b8090505b92915050565b60008183019050828110151515611a5f57fe5b80905092915050565b60008183811515611a7557fe5b04905092915050565b600073ffffffffffffffffffffffffffffffffffffffff16600f60009054906101000a900473ffffffffffffffffffffffffffffffffffffffff1673ffffffffffffffffffffffffffffffffffffffff161415611b21573373ffffffffffffffffffffffffffffffffffffffff166108fc829081150290604051600060405180830381858888f19350505050158015611b1b573d6000803e3d6000fd5b50611c23565b600f60009054906101000a900473ffffffffffffffffffffffffffffffffffffffff1673ffffffffffffffffffffffffffffffffffffffff1663a9059cbb33836040518363ffffffff167c0100000000000000000000000000000000000000000000000000000000028152600401808373ffffffffffffffffffffffffffffffffffffffff1673ffffffffffffffffffffffffffffffffffffffff16815260200182815260200192505050602060405180830381600087803b158015611be657600080fd5b505af1158015611bfa573d6000803e3d6000fd5b505050506040513d6020811015611c1057600080fd5b8101908080519060200190929190505050505b611c38816003546119fb90919063ffffffff16565b60038190555050565b600073ffffffffffffffffffffffffffffffffffffffff168173ffffffffffffffffffffffffffffffffffffffff1614151515611c7d57600080fd5b8073ffffffffffffffffffffffffffffffffffffffff166000809054906101000a900473ffffffffffffffffffffffffffffffffffffffff1673ffffffffffffffffffffffffffffffffffffffff167f8be0079c531659141344cd1fd0a4f28419497f9722a3daafe3b4186f6b6457e060405160405180910390a3806000806101000a81548173ffffffffffffffffffffffffffffffffffffffff021916908373ffffffffffffffffffffffffffffffffffffffff160217905550505600a165627a7a72305820de77c4b891ffbb44b4d5b814ea95c974b5fb289a065c0f29efbb8bc516d3958c0029",
  "source": "pragma solidity 0.4.24;\n\nimport \"contracts/zeppelin/ownership/Ownable.sol\";\nimport \"contracts/zeppelin/SafeMath.sol\";\nimport \"contracts/zeppelin/ERC20/BasicToken.sol\";\nimport \"contracts/interfaces/ISimpleBond.sol\";\n\ncontract SimpleBond is ISimpleBond, Ownable {\n\n  using SafeMath for uint256;\n\n  string name;\n\n  address tokenToRedeem;\n\n  uint256 totalDebt;\n\n  uint256 parDecimals;\n\n  uint256 bondsNumber;\n\n  uint256 cap;\n\n  uint256 parValue;\n\n  uint256 couponRate;\n\n  uint256 term;\n\n  uint256 timesToRedeem;\n\n  uint256 loopLimit;\n\n  uint256 nonce = 0;\n\n  uint256 couponThreshold = 0;\n\n  uint256 maxCouponsToRedeem = 0;\n\n  BasicToken token;\n\n  mapping(uint256 => address) bonds;\n  mapping(uint256 => uint256) maturities;\n  mapping(uint256 => uint256) couponsRedeemed;\n  mapping(address => uint256) bondsAmount;\n\n  constructor(string _name, uint256 _par, uint256 _parDecimals, uint256 _coupon,\n              uint256 _term, uint256 _cap, uint256 _timesToRedeem, address _tokenToRedeem,\n              uint256 _loopLimit) {\n\n    require(bytes(_name).length > 0);\n    require(_coupon > 0);\n    require(_par > 0);\n    require(_term > 0);\n    require(_loopLimit > 0);\n    require(_timesToRedeem >= 1);\n\n    name = _name;\n\n    parValue = _par;\n\n    cap = _cap;\n\n    loopLimit = _loopLimit;\n\n    parDecimals = _parDecimals;\n\n    timesToRedeem = _timesToRedeem;\n\n    couponRate = _coupon;\n\n    term = _term;\n\n    couponThreshold = term.div(timesToRedeem);\n\n    if (_tokenToRedeem == address(0))\n      tokenToRedeem = _tokenToRedeem;\n\n    else\n      token = BasicToken(_tokenToRedeem);\n\n  }\n\n  function changeLoopLimit(uint256 _loopLimit) public onlyOwner {\n\n    require(_loopLimit > 0);\n\n    loopLimit = _loopLimit;\n\n  }\n\n  function mintBond(address buyer, uint256 _bondsAmount) public onlyOwner {\n\n    require(buyer != address(0));\n    require(_bondsAmount >= 1);\n    require(_bondsAmount <= loopLimit);\n\n    if (cap > 0)\n      require(bondsNumber.add(_bondsAmount) <= cap);\n\n    bondsNumber = bondsNumber.add(_bondsAmount);\n\n    nonce = nonce.add(_bondsAmount);\n\n    for (uint256 i = 0; i < _bondsAmount; i++) {\n\n      maturities[nonce.sub(i)] = now.add(term);\n      bonds[nonce.sub(i)] = buyer;\n      couponsRedeemed[nonce.sub(i)] = 0;\n      bondsAmount[buyer] = bondsAmount[buyer].add(_bondsAmount);\n\n    }\n\n    totalDebt = totalDebt.add(parValue.mul(_bondsAmount))\n                .add((parValue.mul(couponRate)\n                .div(100)).mul(timesToRedeem.mul(_bondsAmount)));\n\n    emit MintedBond(buyer, _bondsAmount);\n\n  }\n\n  function redeemCoupons(uint256[] _bonds) public {\n\n    require(_bonds.length > 0);\n    require(_bonds.length <= loopLimit);\n\n    uint256 issueDate = 0;\n    uint256 lastThresholdRedeemed = 0;\n    uint256 toRedeem = 0;\n\n    for (uint256 i = 0; i < _bonds.length; i++) {\n\n      if (bonds[_bonds[i]] != msg.sender\n          || couponsRedeemed[_bonds[i]] == timesToRedeem) continue;\n\n      issueDate = maturities[_bonds[i]].sub(term);\n\n      lastThresholdRedeemed = issueDate.add(couponsRedeemed[_bonds[i]].mul(couponThreshold));\n\n      if (lastThresholdRedeemed.add(couponThreshold) >= maturities[_bonds[i]] ||\n          now < lastThresholdRedeemed.add(couponThreshold)) continue;\n\n      toRedeem = (now.sub(lastThresholdRedeemed)).div(couponThreshold);\n\n      if (toRedeem == 0) continue;\n\n      couponsRedeemed[_bonds[i]] = couponsRedeemed[_bonds[i]].add(toRedeem);\n\n      getMoney( toRedeem.mul(parValue.mul(couponRate).div( 10 ** (parDecimals.add(2)) ) ) );\n\n      if (couponsRedeemed[_bonds[i]] == timesToRedeem) {\n\n        bonds[_bonds[i]] = address(0);\n        maturities[_bonds[i]] = 0;\n        bondsAmount[msg.sender]--;\n\n        getMoney(parValue.div( (10 ** parDecimals) ) );\n\n      }\n\n    }\n\n    emit RedeemedCoupons(msg.sender, _bonds);\n\n  }\n\n  function transfer(address receiver, uint256[] _bonds) public {\n\n    require(_bonds.length > 0);\n    require(receiver != address(0));\n\n    for (uint256 i = 0; i < _bonds.length; i++) {\n\n      if (bonds[_bonds[i]] != msg.sender\n          || couponsRedeemed[_bonds[i]] == timesToRedeem) continue;\n\n      bonds[_bonds[i]] = receiver;\n      bondsAmount[msg.sender] = bondsAmount[msg.sender].sub(1);\n      bondsAmount[receiver] = bondsAmount[receiver].add(1);\n\n    }\n\n    emit Transferred(msg.sender, receiver, _bonds);\n\n  }\n\n  function donate() public payable {}\n\n  function() {}\n\n  //PRIVATE\n\n  function getMoney(uint256 amount) private {\n\n    if (address(token) == address(0))\n      msg.sender.transfer(amount);\n\n    else\n      token.transfer(msg.sender, amount);\n\n    totalDebt = totalDebt.sub(amount);\n\n  }\n\n  //GETTERS\n\n  function getLastTimeRedeemed(uint256 bond) public view returns (uint256) {\n\n    uint256 issueDate = maturities[bond].sub(term);\n\n    uint256 lastThresholdRedeemed = issueDate.add(couponsRedeemed[bond].mul(couponThreshold));\n\n    return lastThresholdRedeemed;\n\n  }\n\n  function getBondOwner(uint256 bond) public view returns (address) {\n\n    return bonds[bond];\n\n  }\n\n  function getRemainingCoupons(uint256 bond) public view returns (int256) {\n\n    address owner = getBondOwner(bond);\n\n    if (owner == address(0)) return -1;\n\n    uint256 redeemed = getCouponsRedeemed(bond);\n\n    return int256(timesToRedeem - redeemed);\n\n  }\n\n  function getCouponsRedeemed(uint256 bond) public view returns (uint256) {\n\n    return couponsRedeemed[bond];\n\n  }\n\n  function getTokenAddress() public view returns (address) {\n\n    return (address(token));\n\n  }\n\n  function getTimesToRedeem() public view returns (uint256) {\n\n    return timesToRedeem;\n\n  }\n\n  function getTerm() public view returns (uint256) {\n\n    return term;\n\n  }\n\n  function getMaturity(uint256 bond) public view returns (uint256) {\n\n    return maturities[bond];\n\n  }\n\n  function getSimpleInterest() public view returns (uint256) {\n\n    uint256 rate = getCouponRate();\n\n    uint256 par = getParValue();\n\n    return par.mul(rate).div(100);\n\n  }\n\n  function getCouponRate() public view returns (uint256) {\n\n    return couponRate;\n\n  }\n\n  function getParValue() public view returns (uint256) {\n\n    return parValue;\n\n  }\n\n  function getCap() public view returns (uint256) {\n\n    return cap;\n\n  }\n\n  function getBondsNumber(address who) public view returns (uint256) {\n\n    return bondsAmount[who];\n\n  }\n\n  function getParDecimals() public view returns (uint256) {\n\n    return parDecimals;\n\n  }\n\n  function getTokenToRedeem() public view returns (address) {\n\n    return tokenToRedeem;\n\n  }\n\n  function getName() public view returns (string) {\n\n    return name;\n\n  }\n\n  function getTotalDebt() public view returns (uint256) {\n\n    return totalDebt;\n\n  }\n\n  function getTotalBonds() public view returns (uint256) {\n\n    return bondsNumber;\n\n  }\n\n  function getNonce() public view returns (uint256) {\n\n    return nonce;\n\n  }\n\n  function getCouponThreshold() public view returns (uint256) {\n\n    return couponThreshold;\n\n  }\n\n  function getMaxCouponsToRedeem() public view returns (uint256) {\n\n    return maxCouponsToRedeem;\n\n  }\n\n}\n",
  "sourcePath": "/home/stefan/Work/Smart-Bond/contracts/SimpleBond.sol",
  "compiler": {
    "name": "solc",
    "version": "0.4.24+commit.e67f0147.Emscripten.clang"
  },
  "schemaVersion": "2.0.1",
  "updatedAt": "2018-12-12T13:35:00.436Z"
}